:080000004E1604000000000090
:04003400240800009C
:040040009A0800001A
:04005400EA080000B6
:100200003220EF0083702000830150000500310090
:10021000C3112000008041001040BA000160EF00CF
:1002200000000600C0112000838141008081410050
:100230001380BA0000000600806E80005D4C6E00E6
:100240003D2E5D0022174C000E073D0003012E00DD
:10025000020522000A1217001C280E003544070070
:1002600055660300778901009AAB0200BCCB0500FC
:10027000D8E40A00EEF61200FBFE1C00FFFD280089
:10028000F9F23500E9DE4400D2C35500B4A366009C
:10029000928077006E5D89004C3D9A002E22AB0063
:1002A000170EBC000703CB000102D800050AE400CA
:1002B000121CEE002835F6004455FB006677FE0060
:1002C000899AFF00ABBCFD00CBD8F900E4EEF20048
:1002D000F6FBE900FEFFDE00FDF9D200F2E9C30003
:1002E000DED2B400C3B4A300A3929200806E80005B
:1002F0005D4C6E003D2E5D0022174C000E073D0048
:1003000003012E00020522000A1217001C280E000D
:100310003544070055660300778901009AAB020057
:10032000BCCB0500D8E40A00EEF61200FBFE1C0070
:10033000FFFD2800F9F23500E9DE4400D2C3550084
:10034000B4A36600928077006E5D89004C3D9A00F0
:100350002E22AB00170EBC000703CB000102D80011
:10036000050AE400121CEE002835F6004455FB0097
:100370006677FE00899AFF00ABBCFD00CBD8F90080
:10038000E4EEF200F6FBE900FEFFDE00FDF9D2002C
:10039000F2E9C300DED2B400C3B4A300A39292007A
:1003A000806E80005D4C6E003D2E5D0022174C007B
:1003B0000E073D0003012E00020522000A1217005D
:1003C0001C280E003544070055660300778901009C
:1003D0009AAB0200BCCB0500D8E40A00EEF612008E
:1003E000FBFE1C00FFFD2800F9F23500E9DE4400A9
:1003F000D2C35500B4A36600928077006E5D890079
:100400004C3D9A002E22AB00170EBC000703CB0018
:100410000102D800050AE400121CEE002835F6009F
:100420004455FB006677FE00899AFF00ABBCFD00D7
:10043000CBD8F900E4EEF200F6FBE900FEFFDE00A7
:10044000FDF9D200F2E9C300DED2B400C3B4A300C8
:10045000A3929200806E80005D4C6E003D2E5D0088
:1004600022174C000E073D0003012E00020522005A
:100470000A1217001C280E003544070055660300B9
:10048000778901009AAB0200BCCB0500D8E40A00D2
:10049000EEF61200FBFE1C00FFFD2800F9F235000D
:1004A000E9DE4400D2C35500B4A366009280770011
:1004B0006E5D89004C3D9A002E22AB00170EBC00E9
:1004C0000703CB000102D800050AE400121CEE006D
:1004D0002835F6004455FB006677FE00899AFF0038
:1004E000ABBCFD00CBD8F900E4EEF200F6FBE9006E
:1004F000FEFFDE00FDF9D200F2E9C300DED2B40057
:10050000C3B4A300A3929200806E80005D4C6E0085
:100510003D2E5D0022174C000E073D0003012E000A
:10052000020522000A1217001C280E00354407009D
:1005300055660300778901009AAB0200BCCB050029
:10054000D8E40A00EEF61200FBFE1C00FFFD2800B6
:10055000F9F23500E9DE4400D2C35500B4A36600C9
:10056000928077006E5D89004C3D9A002E22AB0090
:10057000170EBC000703CB000102D800050AE400F7
:10058000121CEE002835F6004455FB006677FE008D
:10059000899AFF00ABBCFD00CBD8F900E4EEF20075
:1005A000F6FBE900FEFFDE00FDF9D200F2E9C30030
:1005B000DED2B400C3B4A300A3929200806E800088
:1005C0005D4C6E003D2E5D0022174C000E073D0075
:1005D00003012E00020522000A1217001C280E003B
:1005E0003544070055660300778901009AAB020085
:1005F000BCCB0500D8E40A00EEF61200FBFE1C009E
:10060000FFFD2800F9F23500E9DE4400D2C35500B1
:10061000B4A36600928077006E5D89004C3D9A001D
:100620002E22AB00170EBC000703CB000102D8003E
:10063000050AE400121CEE002835F6004455FB00C4
:100640006677FE00899AFF00ABBCFD00CBD8F900AD
:10065000E4EEF200F6FBE900FEFFDE00FDF9D20059
:10066000F2E9C300DED2B400C3B4A300A3929200A7
:10067000806E80005D4C6E003D2E5D0022174C00A8
:100680000E073D0003012E00020522000A1217008A
:100690001C280E00354407005566030077890100C9
:1006A0009AAB0200BCCB0500D8E40A00EEF61200BB
:1006B000FBFE1C00FFFD2800F9F23500E9DE4400D6
:1006C000D2C35500B4A36600928077006E5D8900A6
:1006D0004C3D9A002E22AB00170EBC000703CB0046
:1006E0000102D800050AE400121CEE002835F600CD
:1006F0004455FB006677FE00899AFF00ABBCFD0005
:10070000CBD8F900E4EEF200F6FBE900FEFFDE00D4
:10071000FDF9D200F2E9C300DED2B400C3B4A300F5
:10072000A3929200806E80005D4C6E003D2E5D00B5
:1007300022174C000E073D0003012E000205220087
:100740000A1217001C280E003544070055660300E6
:10075000778901009AAB0200BCCB0500D8E40A00FF
:10076000EEF61200FBFE1C00FFFD2800F9F235003A
:10077000E9DE4400D2C35500B4A36600928077003E
:100780006E5D89004C3D9A002E22AB00170EBC0016
:100790000703CB000102D800050AE400121CEE009A
:1007A0002835F6004455FB006677FE00899AFF0065
:1007B000ABBCFD00CBD8F900E4EEF200F6FBE9009B
:1007C000FEFFDE00FDF9D200F2E9C300DED2B40084
:1007D000C3B4A300A3929200806E80005D4C6E00B3
:1007E0003D2E5D0022174C000E073D0003012E0038
:1007F000020522000A1217001C280E0035440700CB
:1008000055660300778901009AAB0200BCCB050056
:10081000D8E40A00EEF61200FBFE1C00FFFD2800E3
:10082000F9F23500E9DE4400D2C35500B4A36600F6
:10083000928077006E5D89004C3D9A002E22AB00BD
:10084000170EBC000703CB000102D800050AE40024
:10085000121CEE002835F6004455FB006677FE00BA
:10086000899AFF00ABBCFD00CBD8F900E4EEF200A2
:10087000F6FBE900FEFFDE00FDF9D200F2E9C3005D
:10088000DED2B400C3B4A300A3929200806E8000B5
:100890005D4C6E003D2E5D0022174C000E073D00A2
:1008A00003012E00020522000A1217001C280E0068
:1008B0003544070055660300778901009AAB0200B2
:1008C000BCCB0500D8E40A00EEF61200FBFE1C00CB
:1008D000FFFD2800F9F23500E9DE4400D2C35500DF
:1008E000B4A36600928077006E5D89004C3D9A004B
:1008F0002E22AB00170EBC000703CB000102D8006C
:10090000050AE400121CEE002835F6004455FB00F1
:100910006677FE00899AFF00ABBCFD00CBD8F900DA
:10092000E4EEF200F6FBE900FEFFDE00FDF9D20086
:10093000F2E9C300DED2B400C3B4A300A3929200D4
:10094000806E80005D4C6E003D2E5D0022174C00D5
:100950000E073D0003012E00020522000A121700B7
:100960001C280E00354407005566030077890100F6
:100970009AAB0200BCCB0500D8E40A00EEF61200E8
:10098000FBFE1C00FFFD2800F9F23500E9DE440003
:10099000D2C35500B4A36600928077006E5D8900D3
:1009A0004C3D9A002E22AB00170EBC000703CB0073
:1009B0000102D800050AE400121CEE002835F600FA
:1009C0004455FB006677FE00899AFF00ABBCFD0032
:1009D000CBD8F900E4EEF200F6FBE900FEFFDE0002
:1009E000FDF9D200F2E9C300DED2B400C3B4A30023
:1009F000A3929200806E80005D4C6E003D2E5D00E3
:100A000022174C000E073D0003012E0002052200B4
:100A10000A1217001C280E00354407005566030013
:100A2000778901009AAB0200BCCB0500D8E40A002C
:100A3000EEF61200FBFE1C00FFFD2800F9F2350067
:100A4000E9DE4400D2C35500B4A36600928077006B
:100A50006E5D89004C3D9A002E22AB00170EBC0043
:100A60000703CB000102D800050AE400121CEE00C7
:100A70002835F6004455FB006677FE00899AFF0092
:100A8000ABBCFD00CBD8F900E4EEF200F6FBE900C8
:100A9000FEFFDE00FDF9D200F2E9C300DED2B400B1
:100AA000C3B4A300A3929200806E80005D4C6E00E0
:100AB0003D2E5D0022174C000E073D0003012E0065
:100AC000020522000A1217001C280E0035440700F8
:100AD00055660300778901009AAB0200BCCB050084
:100AE000D8E40A00EEF61200FBFE1C00FFFD280011
:100AF000F9F23500E9DE4400D2C35500B4A3660024
:100B0000928077006E5D89004C3D9A002E22AB00EA
:100B1000170EBC000703CB000102D800050AE40051
:100B2000121CEE002835F6004455FB006677FE00E7
:100B3000899AFF00ABBCFD00CBD8F900E4EEF200CF
:100B4000F6FBE900FEFFDE00FDF9D200F2E9C3008A
:100B5000DED2B400C3B4A300A3929200806E8000E2
:100B60005D4C6E003D2E5D0022174C000E073D00CF
:100B700003012E00020522000A1217001C280E0095
:100B80003544070055660300778901009AAB0200DF
:100B9000BCCB0500D8E40A00EEF61200FBFE1C00F8
:100BA000FFFD2800F9F23500E9DE4400D2C355000C
:100BB000B4A36600928077006E5D89004C3D9A0078
:100BC0002E22AB00170EBC000703CB000102D80099
:100BD000050AE400121CEE002835F6004455FB001F
:100BE0006677FE00899AFF00ABBCFD00CBD8F90008
:100BF000E4EEF200F6FBE900FEFFDE00FDF9D200B4
:100C0000F2E9C300DED2B400C3B4A300A392920001
:100C1000806E80005D4C6E003D2E5D0022174C0002
:100C20000E073D0003012E00020522000A121700E4
:100C30001C280E0035440700556603007789010023
:100C40009AAB0200BCCB0500D8E40A00EEF6120015
:100C5000FBFE1C00FFFD2800F9F23500E9DE440030
:100C6000D2C35500B4A36600928077006E5D890000
:100C70004C3D9A002E22AB00170EBC000703CB00A0
:100C80000102D800050AE400121CEE002835F60027
:100C90004455FB006677FE00899AFF00ABBCFD005F
:100CA000CBD8F900E4EEF200F6FBE900FEFFDE002F
:100CB000FDF9D200F2E9C300DED2B400C3B4A30050
:100CC000A3929200806E80005D4C6E003D2E5D0010
:100CD00022174C000E073D0003012E0002052200E2
:100CE0000A1217001C280E00354407005566030041
:100CF000778901009AAB0200BCCB0500D8E40A005A
:100D0000EEF61200FBFE1C00FFFD2800F9F2350094
:100D1000E9DE4400D2C35500B4A366009280770098
:100D20006E5D89004C3D9A002E22AB00170EBC0070
:100D30000703CB000102D800050AE400121CEE00F4
:100D40002835F6004455FB006677FE00899AFF00BF
:100D5000ABBCFD00CBD8F900E4EEF200F6FBE900F5
:100D6000FEFFDE00FDF9D200F2E9C300DED2B400DE
:100D7000C3B4A300A3929200806E80005D4C6E000D
:100D80003D2E5D0022174C000E073D0003012E0092
:100D9000020522000A1217001C280E003544070025
:100DA00055660300778901009AAB0200BCCB0500B1
:100DB000D8E40A00EEF61200FBFE1C00FFFD28003E
:100DC000F9F23500E9DE4400D2C35500B4A3660051
:100DD000928077006E5D89004C3D9A002E22AB0018
:100DE000170EBC000703CB000102D800050AE4007F
:100DF000121CEE002835F6004455FB006677FE0015
:100E0000899AFF00ABBCFD00CBD8F900E4EEF200FC
:100E1000F6FBE900FEFFDE00FDF9D200F2E9C300B7
:100E2000DED2B400C3B4A300A3929200806E80000F
:100E30005D4C7A003D2E750022176F000E07690089
:100E400003016200020559000A1251001C284800E3
:100E500035443E005566350077892B009AAB220059
:100E6000BCCB1900D8E41200EEF60B00FBFE060026
:100E7000FFFD0300F9F20100E9DE0100D2C3030027
:100E8000B4A3060092800A006E5D10004C3D17006E
:100E90002E221F00170E2800070330000102390020
:100EA000050A4100121C49002835510044555800DC
:100EB00066775E00899A6300ABBC6800CBD86C0093
:100EC000E4EE6F00F6FB7200FEFF7400FDF97600A1
:100ED000F2E97700DED27800C3B47900A3927A00F9
:100EE000806E7A005D4C7B003D2E7B0022177B00DC
:100EF0000E077B0003017B0002057B000A127C00C9
:100F00001C287C0035447C0055667C0077897C0079
:100F10009AAB7C00BCCB7D00D8E47D00EEF67D0072
:100F2000FBFE7D00FFFD7E00F9F27E00E9DE7E0023
:100F3000D2C37F00B4A37F0092807F006E5D8000EB
:100F40004C3D80002E228100170E81000703810096
:100F500001028100050A8200121C820028358200ED
:100F60004455820066778300899A8300ABBC830076
:100F7000CBD88300E4EE8300F6FB8300FEFF840001
:100F8000FDF98400F2E98400DED28400C3B4840059
:100F9000A3928500806E85005D4C85003D2E860005
:100FA000221787000E0788000301890002058B00C5
:100FB0000A128E001C289000354494005566980053
:100FC00077899D009AABA300BCCBA900D8E4B00000
:100FD000EEF6B800FBFEC000FFFDC800F9F2D1003C
:100FE000E9DED900D2C3E200B4A3E9009280F000A8
:100FF0006E5DF6004C3DFA002E22FD00170EFE003D
:101000000703FE000102FB00050AF700121CF200B4
:101010002835EB004455E3006677DB00899AD2005F
:10102000ABBCC800CBD8BE00E4EEB500F6FBAC000C
:10103000FEFFA300FDF99C00F2E99400DED28E00D1
:10104000C3B48800A39284004200F8003600F80080
:10105000801F7800200020000C000900B01F7800DD
:10106000D51680000510B20000408000000102008B
:101070000000000080827200E516880000408000B9
:1010800000010200000000000160EF00C602DE0067
:10109000E202F800E5FF9F00E202F900E362EF00E0
:1010A00004408000735620000418E10002003A005A
:1010B000D1E2AA001100370004408000849DB200F4
:1010C0000400320004408000436C20000418E1005A
:1010D00002003A00D1A2A8000800370004408000B6
:1010E000E49EB2000400320004408000A36D2000A2
:1010F0000418E10001003A00D1A2A9000028EC0088
:1011000004408000C3A820000418E10001003E0054
:101110000028EF008460A900A00120000C00090055
:101120004F1078004F0078003600F9004200F900B7
:10113000004006004200F8003600F800801F7800EA
:10114000200020000C000900B01F7800144080002F
:10115000E31025000418E10002003900DD02A800B8
:1011600001003700DD02A9000228EC0014408000D5
:10117000C3212A000418E10001003E000228EF000C
:1011800020408000344080000020E100020039004F
:10119000D1C2A80001003700D1C2A9000428EC0088
:1011A00040408000244080000020E1000100390020
:1011B0000428EF0084C0A900A00120000C00090051
:1011C0004F1078004F0078003600F9004200F90017
:1011D000004006004200F8003600F800801F78004A
:1011E000200020000C000900B01F7800A002AE0013
:1011F000FEFF3700001480000C28B400000020001F
:101200000E88B400704088001028EC0084408000F4
:10121000031020000418E10018003E000BC8BF00B6
:101220000160EF004100DD002481200084024000C5
:101230000DC8BF000EC8BF0001E0B7000FC8BF0057
:10124000800078000360EF00800A78000C28EF002F
:101250000E28EF001028EF000B68EC0054408000CF
:101260004822DE006224E10001003A000B68EF0032
:101270000BC8BF00A6E2B700A762EF00A002A9005A
:10128000A022A8008560A900A00120000C00090090
:101290004F1078004F0078003600F9004200F90046
:1012A00000400600851F7800861F7800E1082000B6
:1012B0000000E0001200320000F0A7000400370038
:1012C0004200A9000080D2008100E900FAFF370047
:1012D0000180FD004200A9008180D30000F0A10040
:1012E0000080FD00814068000040B2000700370028
:1012F000014078000170A0000140B20003003700F7
:101300000000EB008000EB00000037004F03780086
:10131000CF02780000000600851F7800C50020007D
:1013200004000900B51F78000002780081027800EF
:1013300083037800020378004200A9004220A9003C
:101340008180D2000180FD00F10FB2000100E000B9
:10135000480032004200A9004220A9008381D20047
:101360000380FD00F30FB2000300E00041003200F3
:101370000080FB0001C0410004003100F007B10013
:101380003C0032003B003900020037001048B0003A
:101390003800310007856A004200A9004220A900F8
:1013A000F50FB2000570A0004200A900F70FB200CF
:1013B0000770A0000621B800062CB80083014C007D
:1013C00089007800043CB80083014C0081804C0007
:1013D000072CB80081004C000000E8000100E0008C
:1013E0004220AF0001003700030037000300E00097
:1013F0004220AF000500370001F0A70003003700CE
:101400008381D2008180D2000000E90001017800D0
:101410004200A9000370A6000900370007F02F0062
:10142000878161000310B000600149000200E00004
:1014300003003A000300E00001003A000000E80069
:101440000080FD004200A9004220A9008080D30056
:101450000AF0A70001F0A00002F0A1000280FD0048
:10146000814069000380FD0003417800020078009C
:1014700003003700000020000100200000003700BA
:101480004501200004000900CF127800CF02780047
:1014900000000600851F7800C50020000300090039
:1014A000B51F78008004EB00080028004300AF005F
:1014B00083016C00010578008A85690001037800CA
:1014C00083037800030678004220A9004200A900A7
:1014D0000683D2000680FD00F60FB2000600E00091
:1014E000A10032004220A9004200A9008783D20057
:1014F0000780FD00F70FB2000700E0009F003200F8
:101500004220A9004200A9000638E1009C003200F8
:10151000A30033000900A1000910A00006845300B5
:1015200007037800F10FB2000170A000F30FB200C2
:101530000370A000870220000838E100110033008A
:101540004220A9004200A9008180D3000080D3007E
:101550000804E900FAFF3A000D0037008702200076
:101560000838E100090033004220A9004200A90028
:101570008381D3000281D3000804E900FAFF3A0016
:101580000F00370002007800830078004300370026
:101590000BF0A600110037000940A7008C05780069
:1015A0000000EA000200320081C0EA0001003700BA
:1015B0008100EA000940A7002B0037000700370030
:1015C0000BF0A600050037000201EA00020032001D
:1015D00083C1EA00010037008301EA00F50FB20081
:1015E0004220A9004200A9000200400083C0480038
:1015F0004200AF000930A0000900A7000900370031
:101600000910A700010037000B0037000BF0A700FE
:10161000150037000930A700290037000960A00035
:101620001E0037000BF0A7000F0037000930A7009D
:1016300023003700190037000920A1000BF0A70094
:10164000040037008A0578000930A7001C00370025
:10165000360037000940A00001C8B2000170A700A1
:10166000CDFF37008A057800F10FB20081037000CA
:101670000A0032000170A700080037004220A900CC
:101680004200A9000080D2008180D2000603E90058
:101690004220AF0031003700F6FF37000900A700F5
:1016A0008A0578000910A7008C0578000950A6006B
:1016B0001A0037000AF0A7000080A0001B003700C6
:1016C0004200A80081C0D3000080D3004200AF00D8
:1016D0000950A0000603E800200032000950A600CF
:1016E000080037000000E80006003A008140E800EA
:1016F00004003A0081C0D3000080D3000603E80054
:10170000160032000900A7008A0578000910A7001A
:101710008C0578004220AF00100037000960A70058
:101720008A0578000970A7008C0578000101700017
:10173000230032000170A1000680FD004220A900B4
:101740004200A9000683D30081006B0001F0A000D5
:101750000BF0A60001F0A1001900370000002000E6
:1017600001002000160037000AF0A70083016C007A
:101770000200780083007800110037001000370065
:10178000F30FB2000370A000F10FB2000170A000CF
:101790000BF0A7000370A1000920A00088FF37000C
:1017A00007045300F10FB2000170A000F30FB20064
:1017B0000370A0000910A1000900A00067FF370016
:1017C0002501200003000900CF127800CF02780025
:1017D00000000600851F7800861F7800871F7800AC
:1017E0000382680004F0A600060037004200A9004A
:1017F0004220A90001F0A600260037004200A80000
:10180000240037000102780080027800030378008A
:10181000820378008180D2000180FD008381D200A4
:101820000380FD0081C051000500320004F0A600D5
:10183000180037001000200042E0B6001500370005
:1018400084407800864178000170A1000370A100F7
:1018500081C051000500320004F0A6000D003700E1
:101860001000200042E0B6000A00370085805300D7
:101870000500320004F0A60006003700100020002A
:1018800042E0B600030037004200A9000100370023
:1018900000003700CF0378004F037800CF027800B4
:1018A0000000060000017800810178000140780006
:1018B0000080FD0000F0A0008180D2000180FD00CA
:1018C0008180FB00E40820008140520006003200C5
:1018D0000000E000040032004200A9000080D300B4
:1018E0008100E900FAFF3A0003F0A6000200370089
:1018F0000000EA000000370000000600851F7800A5
:10190000C500200004000900B51F78008004EB002A
:101910008384680001037800800278000304780063
:10192000820378008180D2000180FD008180FB006D
:101930000100E0004E0032008381D2000380FD00F0
:101940008381FB000300E000490032000000EB004F
:1019500003C0500003003900F047B00044003100DC
:10196000030037001048B100410039004000320048
:1019700085007800060178000270A000F20FB20026
:10198000F80FB2000870A0009A0120008001EB005F
:101990000002EB008780500008015900020033006C
:1019A0000400310004003A0087804000080149002B
:1019B000010037000400A0000A05E900070032001A
:1019C0004200A9008180D2000281D2004200A90019
:1019D0000482D2008381D200EEFF37000005EB00C5
:1019E0000380A70001003700060037004200A9006D
:1019F0008381D3000370A1000482D3000A85D20042
:101A0000020037000000E900190032000AF0A700C8
:101A1000050039008180D2000281D2008780500009
:101A200008015900090039000402E80007003A00E3
:101A30008301E80005003A000000E8000C003200D5
:101A4000020037000000E900090032000080FD00BC
:101A50008080D30001F0A00009F0A60001F0A100F1
:101A60000370A10081C06900040078000300370002
:101A70000000200001002000000037004501200088
:101A800004000900CF127800CF02780000000600A1
:101A9000851F7800861F78003F08A9003A08F800E3
:101AA0004008F9003C08F8004208F900D0418000E5
:101AB000E14180000200200003002000EA0B020048
:101AC00000000000020039003F08A80043E8AA0017
:101AD00000428000114280000200200003702400B8
:101AE000EA0B0200000000000100310009003A008A
:101AF0000042800011428000520C020000000000F1
:101B00005209020000000000204288003142880093
:101B1000490037000042800011428000026829001D
:101B200083B12400EA0B0200000000003E003900EF
:101B30000042800011428000020020000370240057
:101B40007E0C020000000000520C020000000000A9
:101B500040428800004280001142800002002000C4
:101B6000037024007E0C0200000000008002780058
:101B7000010378004042800052090200000000008A
:101B80004300A8000001780081017800050078007A
:101B9000860078004A0A0200000000000001780078
:101BA0008101780000002000017024008C090200EF
:101BB000000000000042880011428800404280007E
:101BC0005209020000000000000178008101780045
:101BD00000002000017024008C09020000000000B9
:101BE000204288003142880000428000114280007B
:101BF000520C020000000000520902000000000028
:101C00004300A90000017800810178002042800093
:101C1000314280004A0A0200000000002042880091
:101C200031428800040037004008F8004408F900F9
:101C30004208F8004608F900004280001142800086
:101C4000520C0200000000005209020000000000D7
:101C50004300A80000017800810178000042800064
:101C6000114280004A0A0200000000000042880081
:101C7000114288003F08AE000100370047E8AA0083
:101C8000004280001142800002002000030020007A
:101C9000EA0B0200000000001B0032003F08AE000B
:101CA0000B0037003E48E20009003A004300A8005C
:101CB00020428000314280000200200003F823000F
:101CC0004A0A0200000000002042880031428800D9
:101CD0003F08AF000C003700F44180006124E100B0
:101CE00009003A004300A9002042800031428000F0
:101CF0000200200003F823004A0A0200000000004E
:101D00002042880031428800D0418000E1418000BB
:101D10000200200003002000EA0B02000000000087
:101D200002003A004428EF004628EF0020428000DD
:101D3000314280004F037800CF0278000000060097
:101D400010C0B3003EE8B7003208F8003A08F900C6
:101D50003408F8003C08F900480D020000000000BB
:101D60000000BE0000000600851F7800C5002000AE
:101D700003000900B51F7800000278008102780096
:101D800002037800830378000000EB008000EB0082
:101D90000001EB008001EB000800A10007F0A600A5
:101DA000050037000800A0000402EA008582EA006E
:101DB0000683EA008783EA008504720002003A0085
:101DC0008704730015003200394720000340A70044
:101DD0000B0037004200A9000482D2008582D200A5
:101DE0000683D2008783D2000080D2008180D20097
:101DF0000281D2008381D2008904E900F3FF3A0016
:101E0000C44CDD004200A90009F0A1000340A1007C
:101E100083816C000800A70003F0A00025012000CA
:101E200003000900CF127800CF02780000000600FE
:101E3000881F78002801200004000900B81F7800DE
:101E40008005EB006066B800030478008704780022
:101E5000FA7F20004200A9004220A90044C4DE000D
:101E6000080465000800E000700032004200A9008C
:101E70004220A900C4CCDE00890465000900E0000E
:101E80006A0032000884440009B0A700040037004B
:101E9000F83FB100650032006400390003003700EC
:101EA0001A402000854245006000310087866900A5
:101EB0004200A9004220A900F300B2000340A000A4
:101EC000F700B2000740A000881F78000124B80086
:101ED000002DB8000A0544008B854C000C80B00032
:101EE0000224B8008B0544000C864C00012CB8007D
:101EF0008B0544000C864C000034B8000005EB0054
:101F00008B0544000C864C000A80B0008005EB0075
:101F10000324B8000C0644000A854C000B80B00076
:101F2000022CB8000C0644000A854C000B80B0005F
:101F30000134B8000C0644000A854C000B80B00048
:101F4000003CB8000C0644000A854C000B80B00031
:101F50000C0078000006EB00032CB8000A054400D2
:101F60008B854C000C80B0000234B8000A05440098
:101F70008B854C000C80B0000334B8008B05440006
:101F80000C864C00013CB8000A0544008B854C00CF
:101F90000C80B000023CB8008B0544000C864C005D
:101FA000033CB8000C0644008A0078000B0178005E
:101FB0008C017800540020004200A9008381D300E6
:101FC0000281D3008180D3000080D3000402E900A5
:101FD000F9FF3A004F0478000804E800010370009C
:101FE00001003200020037000303710008003200D4
:101FF0000340A700060037004200A9000080D2007D
:102000008180D2000281D2008381D2000804E900DD
:102010004444DD0003F0A1000DF0A70003F0A00090
:102020000340A10083016C00030037006000B8008A
:102030006001B80000003700A8012000040009007A
:102040004F1478004F04780000000600881F7800C5
:10205000891F78008A1F78008784690009F0A6002C
:10206000060037004200A9004220A90003F0A600A4
:10207000340037004200A80032003700FA7F200009
:10208000030478008704780044C4DE000804650077
:10209000C4CCDE00890465000885540005003200C8
:1020A00003F0A600270037001000200042E0B60031
:1020B000240037000304780087047800F301B2009D
:1020C000F701B2000340A1000740A10003C553007F
:1020D0000500320008F0A6001A00370010002000AA
:1020E00042E0B60017003700020553000500320039
:1020F00008F0A600130037001000200042E0B600F0
:1021000010003700018552000500320008F0A600DB
:102110000C0037001000200042E0B6000900370034
:10212000000552000500320008F0A6000500370047
:102130001000200042E0B600020037004200A90073
:10214000000037004F057800CF0478004F04780076
:1021500000000600851F7800C5002000050009006A
:10216000B51F78000304780082037800010378002B
:1021700080027800830478003B472000C499DE0089
:10218000FA7F20008301650083855500F801B200C5
:102190000840A0000000EB008000EB000001EB0015
:1021A0008001EB004200A9000884D3008783D3009C
:1021B0000683D3008582D3008381D3000281D300BC
:1021C0008180D3000080D3008B05E900F5FF3A0041
:1021D00009F0A600050037000000EA008180EA004F
:1021E0000281EA008381EA000000370065012000D7
:1021F00005000900CF127800CF0278000000060029
:10220000881F78002801200004000900B81F78000A
:10221000878669000304780087047800FA7F20002D
:102220004200A9004220A90044C4DE000804650061
:102230000800E0006C0032004200A9004220A90022
:10224000C4CCDE00890465000900E00066003200AD
:102250000005EB000906540003003900FC3FB00004
:1022600061003100040037001B4020000B065600BF
:102270005D0039005C0032000004EB008004EB00DC
:102280000005EB008005EB00F301B2000340A00065
:10229000F701B2000740A0008C1F78006C032000FB
:1022A00004005000858058000601590087815900BC
:1022B000020033000600310006003A00040040002E
:1022C00085804800060149008781490001003700E8
:1022D0000800A0000C06E9000B0032004200A90033
:1022E0000080D2008180D2000281D2008381D2009E
:1022F0004200A9000884D2008984D2000A85D20055
:102300008B85D200E6FF37004F0678000B50A70000
:1023100001003700060037004200A9008B85D3007A
:102320000A85D3008984D3000884D30003003700D2
:102330000C06E9004200A9002B0032004200AF0069
:10234000090037000080D2008180D2000281D200D3
:102350008381D20004025000858258000603590090
:1023600087835900150039000804E80013003A007B
:102370008904E80011003A000A05E8000F003A005D
:102380008B05E8000D003A000C06E800160032004C
:102390000A0037000C06E900130032000B40A700CA
:1023A000060037004200A9000884D2008984D200C8
:1023B0000A85D2008B85D200F8FF37004466DD0025
:1023C0004200A9000CF0A1000DF0A7000CF0A00045
:1023D0000B40A1008B016E000A0178008900780093
:1023E00008007800050037000000200001002000F0
:1023F000020020000300200000003700A801200098
:10240000040009004F1478004F0478000000060013
:10241000881F78002801200004000900B81F7800F8
:10242000080028004300AF0087036C000305780014
:102430008A856B000304780087047800070678001B
:10244000FD7F20004220A9004200A90044C4DE0014
:10245000088466000800E000BC0032004220A900A9
:102460004200A900C4CCDE00898466000900E000B7
:10247000BE0032008006EB004220A9004200A90005
:102480000848E100BA003200C10033000D00A1008D
:102490000D10A00008845400F300B2000340A00017
:1024A000F700B2000740A0004803B10016003B004F
:1024B0004803B0004220A9004200A9008381D30054
:1024C0000281D3008180D3000080D3000804E9009A
:1024D000F8FF3A00140037004803B1000F003B003A
:1024E0004803B0004220A9004200A9008783D3001E
:1024F0000683D3008582D3000482D3000804E90058
:10250000F8FF3A001B0037000400780085007800CF
:1025100006017800870178000C866D000CF0A7009A
:102520000BF0A200790037000BF0A6001F00370067
:102530000D40A7008C0578000080EA008180EA0049
:102540000281EA0083C1EA00F341B2000000E80022
:1025500005003A008100E80003003A000201E800AB
:1025600001003A008341E8000D40A7003200370027
:102570000E0037000BF0A6000C0037000482EA00C2
:102580008582EA000683EA0087C3EA00F741B200C9
:102590000402E80005003A008502E80003003A0062
:1025A0000603E80001003A008743E8004220A90042
:1025B0004200A9000400400085804800060149004F
:1025C00087C149000350A7000D30A0000D00A700EF
:1025D000090037000D10A700010037000B0037007D
:1025E0000BF0A700140037000D30A70029003700BA
:1025F0000D60A000210037000BF0A7000E0037008F
:102600000D30A700230037001C0037000BF0A70097
:10261000040037008A0578000D30A7001D00370040
:102620003A0037000D40A00003C1B2000340A700EC
:10263000BFFF37008A057800F301B2000284710001
:1026400002003A00008470000C0032000340A70032
:102650000A0037004220A9004200A9000080D200F1
:102660008180D2000281D2008381D2008904E900F6
:102670004220AF0032003700F4FF37000D00A70002
:102680008A0578000D10A7008C0578000D50A60073
:102690001E0037004200A90083C1D3000281D3008D
:1026A0008180D3000080D3004200AF000D50A00015
:1026B0008904E8004220AF00210037000D50A60039
:1026C0000E0037000000E8000C003A008100E8002E
:1026D0000A003A000201E80008003A008301E8001D
:1026E00006003A0083C1D3000281D3008180D30069
:1026F0000080D3008904E800110032000D00A7001B
:102700008A0578000D10A7008C0578000102700082
:1027100002003A0003027100260032000340A100CB
:102720004220A9004200A900C44CDD0083816C0056
:1027300003F0A0000BF0A60003F0A1001D0037007D
:102740006000B8006011B8001A00370008002800C7
:102750000AF0A70087036C00850078000400780069
:102760000601780087017800120037001100370059
:10277000F700B2000740A000F300B2000340A00041
:102780000BF0A7000740A1000D20A00079FF370043
:10279000F300B2000340A000F700B2000740A00021
:1027A00009045400890444000D10A1000D00A0008C
:1027B00049FF3700A8012000040009004F147800E9
:1027C0004F04780000000600851F7800861F7800FF
:1027D000871F7800881F78004F08A9004608F80076
:1027E0005008F9004808F8005208F9004A08F800B3
:1027F0005408F9004C08F8005608F90030428000EF
:102800004142800052428000634280000400200068
:10281000050020000600200007002000261002000E
:1028200000000000020039004F08A80057E8AA0085
:102830008042800091428000A2428000B34280002A
:10284000040020000500200006002000070E2400E0
:1028500026100200000000000100310010003A00C4
:102860008042800091428000A2428000B3428000FA
:10287000AA10020000000000010020000200200059
:1028800003002000B40E020000000000C0428800D7
:10289000D1428800E2428800F3428800820037007B
:1028A0008042800091428000A2428000B3428000BA
:1028B0000400200005002000062D2100371624000A
:1028C00026100200000000006F00390080428000E6
:1028D00091428000A2428000B342800004002000A8
:1028E0000500200006002000070E24000011020051
:1028F00000000000AA100200000000000043880051
:102900008042800091428000A2428000B342800059
:10291000040020000500200006002000070E24000F
:10292000001102000000000080027800010378001E
:102930008203780003047800004380000100200037
:102940000200200003002000B40E0200000000007E
:102950004300A800851F7800861F7800871F780035
:102960000002780005007800810278008600780077
:10297000020378000701780083037800880178005B
:102980000812020000000000CF0378004F03780017
:10299000CF027800000278008102780002037800FC
:1029A00083037800000020000100200002002000C6
:1029B000030E2400180F020000000000804288006F
:1029C00091428800A2428800B34288000043800000
:1029D000010020000200200003002000B40E0200CD
:1029E00000000000000278008102780002037800F5
:1029F0008303780000002000010020000200200076
:102A0000030E2400180F020000000000C0428800DE
:102A1000D1428800E2428800F34288008042800070
:102A200091428000A2428000B3428000AA100200BE
:102A30000000000001002000020020000300200030
:102A4000B40E0200000000004300A900000278005C
:102A5000810278000203780083037800C04280007E
:102A6000D1428000E2428000F3428000081202005E
:102A700000000000C0428800D1428800E242880085
:102A8000F3428800080037005008F8005808F900A1
:102A90005208F8005A08F9005408F8005C08F900D8
:102AA0005608F8005E08F9008042800091428000DC
:102AB000A2428000B3428000AA1002000000000081
:102AC000010020000200200003002000B40E0200DC
:102AD000000000004300A800000278008102780096
:102AE00002037800830378008042800091428000D6
:102AF000A2428000B34280000812020000000000E1
:102B00008042880091428800A2428800B342880037
:102B10004F08AE00010037005FE8AA008042800045
:102B200091428000A2428000B34280000400200055
:102B300005002000060020000700200026100200EB
:102B400000000000270032004F08AE0011003700DF
:102B50004E48E2000F003A004300A800C042800047
:102B6000D1428000E2428000F34280000400200055
:102B7000050020000600200007FF230008120200C5
:102B800000000000C0428800D1428800E242880074
:102B9000F34288004F08AF001200370074428000F3
:102BA0006124E1000F003A004300A900C042800008
:102BB000D1428000E2428000F34280000400200005
:102BC000050020000600200007FF23000812020075
:102BD00000000000C0428800D1428800E242880024
:102BE000F34288003042800041428000524280001F
:102BF0006342800004002000050020000600200041
:102C000007002000261002000000000004003A0027
:102C10005828EF005A28EF005C28EF005E28EF00EC
:102C2000C0428000D1428000E2428000F342800036
:102C30004F047800CF0378004F037800CF0278006C
:102C40000000060010C0B3004EE8B7003608F800D8
:102C50004608F9003808F8004808F9003A08F80072
:102C60004A08F9003C08F8004C08F900E413020097
:102C700000000000000006003E68EF003208F80087
:102C80003A08F9003408F8003C08F900480D020041
:102C9000000000000000BE000000060040442400C8
:102CA000A004880040442400C004880081E0A800FB
:102CB000A8A2EF000FF82000F0FF200020A0B7002E
:102CC000000000000028EF000228EF000428EF00B9
:102CD0000628EF000828EF000A68EF000C28EF0034
:102CE0000E28EF001028EF000B68EF001228EF000D
:102CF0001428EF001628EF001828EF001A28EF001C
:102D00001C28EF001E28EF002028EF002228EF00EB
:102D10002428EF002668EF002828EF002A28EF007B
:102D200021E2A900C4FF2F0044158800A222EF0071
:102D3000F400210024158800040E280004158800E2
:102D40000421EF00D44820001408880004002A0061
:102D5000240888001021EF00A400200064088800E7
:102D600004022A0084088800F41020003416880029
:102D7000F4FF210064168800040F200094168800D8
:102D8000040C2000C4168800440F2000F4168800AC
:102D90008D60A8008C60A8008CC0A8000BC8BF0084
:102DA000A6E2B700A762EF00A002A900A022A80037
:102DB000904080005209020000000000800278006C
:102DC00001037800050078008600780052FE2F008D
:102DD000F3B923008C09020000000000B040880015
:102DE000C1408800A040800052090200000000009D
:102DF00080027800010378000500780086007800E2
:102E000052FE2F00F3B923008C09020000000000DD
:102E1000D0408800E14088001608F8001E08F9003C
:102E20001808F8002008F900D0408000E140800038
:102E300002002000031F24008C0902000000000093
:102E40001041880021418800E0AC2A00F1E0230015
:102E500012418000234180008C0902000000000024
:102E60004300A9000001780081017800A0702D00C6
:102E700071162C004A0A020000000000800278004F
:102E800001037800202F2D0031112400F240800032
:102E9000034180008C090200000000004300A900EB
:102EA0000001780081017800050078008600780034
:102EB0004A0A020000000000800278000103780046
:102EC000A0372E00419A2B00124180002341800040
:102ED0008C090200000000008003780001047800E3
:102EE00007007800880078001241800023418000AC
:102EF0008C090200000000004300A90000017800D6
:102F00008101780005007800860078004A0A0200F6
:102F100000000000800278000103780060AF270005
:102F200071CF2B0012418000234180008C090200E8
:102F3000000000008003780001047800070078009A
:102F400088007800F2408000034180008C09020074
:102F5000000000004300A900000178008101780012
:102F600005007800860078004A0A02000000000090
:102F70008002780001037800906C2700E1FA2300BA
:102F8000F2408000034180008C0902000000000034
:102F9000800378000104780007007800880078003A
:102FA000F2408000034180008C0902000000000014
:102FB0004300A80000017800810178000500780036
:102FC000860078004A0A02000000000040418800A4
:102FD00051418800404180005141800002002000A2
:102FE000C32424008C090200000000008002780045
:102FF0000103780095418800A6418800A00E0200D8
:1030000000000000520C02000000000026E8B7009B
:1030100026C8BF00D6E2B700D762EF0026C8BF00BF
:10302000CAE2B700CB62EF00F43F2000934080007B
:1030300003005200D4482000800252000421EF0017
:103040001508880004002A0024088800A040800099
:10305000010020000200200003002000B40E020046
:10306000000000000002780081027800020378006E
:103070008303780020852B00E1512800B21E250033
:1030800083FC2300180F020000000000800278007B
:10309000010378008203780003047800B5418800BA
:1030A000C6418800D7418800E84188002216020006
:1030B000000000004300A9000002780081027800AF
:1030C0000203780083037800000020000100200044
:1030D0000200200003FF230008120200000000008D
:1030E000AA100200000000000AE8B700C4212A006C
:1030F000534080000760EF00110009000382D800F0
:1031000052090200000000008002780001037800EC
:1031100095418800A64188003C160200000000008E
:10312000520C020000000000404088004040800037
:103130004100DE0052090200000000008002780019
:103140000103780095418800A6418800A00E020086
:1031500000000000520C0200000000003040880017
:0831600013FF37000040FE00E0
:0200000401F009
:1000000003C300003F000000938700000F31000091
:0C0010000F3300000700000003C00000D8
:00000001FF
;DSPIC30F4011
;CRC=0FE0  CREATED="16-May-13 19:40"
