:020000040000fa
:080000000001040000000000f3
:020000040000fa
:1000080036050000360500003605000036050000fc
:1000180036050000360500003605000036050000ec
:10002800360500003605000036050000880200008d
:1000380036050000360500006403000004040000d3
:100048003605000036050000360500009001000066
:1000580036050000360500003605000036050000ac
:10006800360500003605000036050000360500009c
:10007800360500003605000036050000360500008c
:10008800360500003605000036050000360500007c
:10009800360500003605000036050000360500006c
:1000a800360500003605000036050000360500005c
:1000b800360500003605000036050000360500004c
:1000c800360500003605000036050000360500003c
:1000d800360500003605000036050000360500002c
:1000e800360500003605000036050000360500001c
:0800f80036050000360500008a
:020000040000fa
:1001080036050000360500003605000036050000fb
:1001180036050000360500003605000036050000eb
:10012800360500003605000036050000880200008c
:1001380036050000360500006403000004040000d2
:100148003605000036050000360500009001000065
:1001580036050000360500003605000036050000ab
:10016800360500003605000036050000360500009b
:10017800360500003605000036050000360500008b
:10018800360500003605000036050000360500007b
:10019800360500003605000036050000360500006b
:1001a800360500003605000036050000360500005b
:1001b800360500003605000036050000360500004b
:1001c800360500003605000036050000360500003b
:1001d800360500003605000036050000360500002b
:1001e800360500003605000036050000360500001b
:0801f800360500003605000089
:020000040000fa
:10020000ef8220000eff20000e0188000000000099
:100210000c00070020e5210001002000110007006c
:10022000000020000000e000020032000000020098
:1002300000000000e4040200000000000040da00ba
:100240000000fe004440a900805121000000e000b1
:100250000300320000002000a00188004440a800f4
:100260000000060091018800800078000000eb008b
:1002700015003700e280400032a0b4009101ba00be
:10028000e280400032a0b4009102ba00e280400057
:1002900032a0b4000002eb00472bde00f507b200ed
:1002a000602ce10004003a000059eb008301e900f2
:1002b000fdff3e00040037006128e100010032002c
:1002c0000082eb00040007001101ba000200e00008
:1002d000e8ff3a00000006003159ba008301e90046
:1002e0000c0032002159ba008301e90008003200f5
:1002f0000400e00003003a00e280400032a0b400b5
:10030000f5ff370011d9ba008301e900faff3a007e
:100310008100e800e180400032a0b4000000060047
:10032000809fbe000000fa00a1e2a900004080000a
:10033000e00f500029003a003115800000ff2f0027
:10034000008060000000a0003015880001148000cb
:1003500010148000808040002014800080804000c5
:100360003014800080804000401480008080400075
:100370005014800080804000601480008080400025
:1003800070148000808040008014800080804000d5
:100390009014800080804000a01480008080400085
:1003a000b014800080804000c01480008080400035
:1003b000d014800080804000e014800080804000e5
:1003c000f0148000008040004400de00d04088002f
:1003d0001000200000408800270037003115800001
:1003e00000ff2f000080600030158800011480009d
:1003f0001014800080804000201480008080400025
:1004000030148000808040004014800080804000d4
:100410005014800080804000601480008080400084
:100420007014800080804000801480008080400034
:100430009014800080804000a014800080804000e4
:10044000b014800080804000c01480008080400094
:10045000d014800080804000e01480008080400044
:10046000f0148000008040004400de00e04088007e
:100470000000eb00004088008560a900a1e2a80010
:100480000080fa004f00be00004006000000fa00a5
:10049000d0408000010020009e020700b2c423006b
:1004a00003ba2300f0020700e28120000089be00a9
:1004b000e04080000100200096020700b2c4230043
:1004c00003ba2300e8020700e2812000200198001f
:1004d00031019800e08120001000be0062822000ff
:1004e0000089be00e0812000b00090002000900054
:1004f00002002000031f2400db02070062822000ac
:1005000020019800310198000080fa0000000600e8
:10051000809fbe00821f78000000fa008c60a90056
:1005200005e1a900e1168000001020008080600035
:100530001040800000014000a0932800000041000e
:100540001000780000807000e016880010408000e5
:1005500080004000a0932800008040001000780038
:100560004600de0010178800114080004052200035
:10057000808f50000d003a00801680004f00de0092
:100580000040780000c0ea00614060000080fb008d
:100590004f00dd0082168000f1ff2700810061001e
:1005a0000080700080168800130037001140800022
:1005b000801d2000808f5000040032001140800018
:1005c000406c2000808f500002003a00d1a2a800a9
:1005d0000900370011408000e01e2000808f50008d
:1005e0000400320011408000a06d2000808f500078
:1005f00001003a00d1a2a900104080000000e800ec
:100600001040880011408000c0a82000808f50005a
:1006100002003a000000eb001040880060408000bb
:10062000000888008460a90005e1a8008c60a8008b
:100630000080fa004f0178004f00be000040060025
:100640000000fa00d04080000100200031020700c5
:10065000a2ef2700230a2c008302070002002800d3
:10066000b35b24005f010700204088003140880010
:1006700020408000314080000001be0000942e0028
:10068000e1912400b4010700e27a240063272400ea
:1006900053010700404088005140880040408000de
:1006a000514080000001be0000f02f00f1772400cf
:1006b0004b010700f9010700000078006040880046
:1006c0000080fa0000000600809fbe00821f7800b4
:1006d0000000fa008cc0a90011e1a900801680007a
:1006e0004e00de006140600000c0ea006140600032
:1006f0000080fb00610060004e00dd00821680007b
:10070000f1ff2b00810061000080700080168800de
:10071000704080003008880084c0a9008cc0a80008
:1007200011e1a8000080fa004f0178004f00be00e0
:10073000004006000000fa00e04080000140200078
:1007400000805000e50f500007003e008cc0a9005b
:1007500011e1a90000002600a18e2400804088003d
:10076000914088001a003700e040800001402000de
:1007700080805000703e2000808f500007003600bf
:100780008cc0a80011e1a80000002500015524003c
:1007900080408800914088000d0037008cc0a80080
:1007a00011e1a800e04080000140200000805000de
:1007b000010020000001be0050cd2d0021032000cb
:1007c000a7010700d0010700804088009140880001
:1007d0008040800091408000a2702d0033de230015
:1007e000210207000001be0000f02f00f177240075
:1007f000fb000700a9010700000078007040880096
:100800000080fa0000000600809fbe00821f780072
:100810000000fa008ce0a90013e1a900e0168000b6
:100820004800de006140600000c0ea0061406000f6
:100830000080fb00610060004800dd00e2168000df
:10084000f1ef2f008100610000807000e016880049
:10085000606b22005008880084e0a9008ce0a800aa
:1008600013e1a8000080fa004f0178004f00be009d
:10087000004006000000fa00889fbe006082200051
:10088000b000900020009000e2ac2a00f3e02300ca
:10089000f5010700a2702d0073162400d000070098
:1008a0000004be00608220001000be00222f2d0038
:1008b00033112400ec0107000001be000800be0057
:1008c000c80007000004be0060822000b000900055
:1008d00020009000a2372e00439a2300e201070077
:1008e0000002be0060822000b00090002000900056
:1008f0000001be000400be00db0107000001be00d5
:100900000800be00b60007000004be0060822000a0
:10091000b00090002000900062af270073cf23004a
:10092000d10107000002be00608220001000be005e
:100930000001be000400be00cb0107000001be00a4
:100940000800be00a60007000004be006082200070
:100950001000be00926c2700e3fa2300c2010700da
:100960000002be00608220001000be000001be0038
:100970000400be00bc0107000001be000800be006c
:1009800097000700a0408800b1408800a040800088
:10099000b140800002002000c3242400b2010700ff
:1009a0003e01070000007800c0408800c040800081
:1009b000b0168800c0408000501688004f04be006a
:1009c0000080fa00000006000000fa00f0f02f009e
:1009d00030168800f0ff21006016880000ff2f000d
:1009e0009016880000ec2f00c0168800c0ff2f0072
:1009f000f016880000fe2f003a0007000002eb000e
:100a0000c3ff2f0092142e00c18f2000f0cf2d00c5
:100a100029000700c0ff2f00160007008080eb00b0
:100a200090f82d00610007000080eb002f00070008
:100a30008080eb0050fb2d0060000700c0ff2f00fe
:100a4000380007008080eb00d0fb2d00600007001d
:100a5000c0ff2f00440007008cfe0700f8fe0700cf
:100a600034ff070083ff0700fbff37000040da0078
:100a70000000fe008560a900670160004c11dd00e8
:100a8000c3048000f1ff2800818061008280700033
:100a9000c104880068006000c300de00e1806000df
:100aa000cb08dd006004800000b0a10001007000f0
:100ab0006004880000000600431588005415880073
:100ac000221588001115880000158800620060005a
:100ad000011580000110a1008080700001158800c0
:100ae0000000060030158800000006008460a900a0
:100af000670160004c11dd00a3048000f1ff2800b5
:100b00008180610082807000a1048800680060001c
:100b1000610480000130a1008080700061048800c1
:100b20000000060084c0a900670160004811dd00d4
:100b3000b3048000f18f2f008180610082807000fb
:100b4000b104880068006000c300de00e18060003e
:100b5000c608dd00600480000060a1000100700094
:100b6000600488000000060084e0a90067016000be
:100b70004c11dd00b3048000f1ff2800818061008a
:100b800082807000b104880068006000c300de004d
:100b9000e1806000c708dd00600480000070a100f3
:100ba0000100700060048800000006000021ef00d2
:100bb0001108880020088800000006000621ef00c8
:100bc00061088800800888001061a9000000060004
:100bd0000a21ef00710888009008880000000600d4
:100be00003f0a200889fbe008a9fbe008c1f780081
:100bf000050107000c0133006450e1004f00320092
:100c00006420e1005200320003826c0007003b00c8
:100c10000905d0000306d000820f54000c065d00c9
:100c200002003900020032008901780003067800d2
:100c30008582550004003d000003fd008103fd0096
:100c40008502ea008b854200840f720002003b009f
:100c500060001000e08018006011b8000005eb0093
:100c60007a28e1000a00390006007800c75ddd003f
:100c7000f707b200878075002d0037008281710070
:100c80000a017800610560008180d1000080d300f6
:100c90008502e900f9ff3b00060440008784480014
:100ca00002003b0060041400e0841c000988a300db
:100cb000070032008a817100828171006101640045
:100cc0008904d1000884d3008b05e80017003700a1
:100cd0000978a30013003a000b00e0001300340071
:100ce0008b05e9000804440089844c000a44740020
:100cf0000978a3000d003a000b00e0000700340063
:100d00008b05e9000804440089844c0001003a0086
:100d10000b0020000978a300f7ff32000001eb0070
:100d200002003700828171000a0178007b00070011
:100d30000cf0a70001f0a000c40037006420e1001f
:100d400002003a00838f6c00c40033000801be002b
:100d50000200be00bd003700889fbe008a9fbe0013
:100d60008c1f7800a8000700af00330003866c00da
:100d70006450e1002e0032006420e10033003200b4
:100d80006150e1002f0032006120e10031003200ab
:100d900085855500eb07b0000900200008042000fd
:100da000050037000804440089844c000a00310023
:100db0000603430087834b000001530081815b00e1
:100dc000f8ff33000203be000800a000080444003e
:100dd00089844c00f6ff3900c639dd0083017300b9
:100de00001003200130020008904d1000884d300e0
:100df0000998a300050032000800a7000300a00026
:100e00008904d1000884d3008b05e8008904d1004f
:100e10000884d3000001eb000281d2003f000700ec
:100e200001f0a1000cf0a70001f0a000870037003e
:100e30006420e100890032000801be000200be000b
:100e4000f7ff37006120e100840032006000b80045
:100e5000f3ff37000000200001f82700f0ff370003
:100e6000839f68000100e00002003d006000100068
:100e7000e08018000300e00002003d006001110066
:100e8000e0811900ac0007004f00e00002003b00c9
:100e900060001000e0801800000006000001be00a5
:100ea000440007000470a70003f0a10003f8a300aa
:100eb00013003a006509b100100032000900350046
:100ec0006928e1000200350001002800000005004b
:100ed00000004000818048008502e900fcff3a00e4
:100ee00000000600f88f4200050035008100d100a7
:100ef0000080d3008502e800fcff3a0000000600f5
:100f00008000eb00000005004f89de0082017800c0
:100f1000990037006011b800a70037008100200059
:100f2000618055000b003d000b00200061fe2f008a
:100f30000100e1001d003400828171006101640044
:100f40008904d1000884d3000000e800faff3a00c9
:100f50007100200061006400030070000200600066
:100f60000900320061044400e0844c000988a500b7
:100f7000050032008b05e8006808e10002003a0035
:100f80008904d1000884d300f20f20000258e10048
:100f900005003d00c75ddd00f907b20089807500de
:100fa00008007800000006000bf827008b0078008e
:100fb00000000500c70ade00f107b200f50fb2001d
:100fc00008003200e1cf4200020032000170a000b0
:100fd00024000500810f70000100320004080500a4
:100fe00044000500810f700002003a001400050063
:100ff0008502e9000000400081c04800fcff3b0082
:101000000170a000240005000004be00e9ff0700f5
:101010000003be000405be000200be00e5ff07009d
:10102000844f7500000006000200be006450e1001d
:10103000050036006420e100020036000968a300c4
:1010400001003a000800be000160a0004f067800d1
:101050004f05be004f04be0000000600f0ff2f0049
:10106000f1ff2700f9ff3700889fbe008a9fbe006e
:101070008c1f7800e4ff0700ebff330003866c0051
:101080006450e100240032006420e10027003200b7
:101090006150e100220032006120e10021003200b5
:1010a0008b854200eb07b1000134b800003ab8006c
:1010b0000804420089844a00013ab8000030b800b0
:1010c0008880400009014a0004003300000040000d
:1010d00081804800020149008b05e900c909dd0053
:1010e000830170000100320013002000c814de00ec
:1010f0004814dd004709de001200b200c808de0017
:101100000884700085ff070001f0a1000cf0a70023
:1011100001f0a000cdff37006120e100cfff3200d9
:101120000801be000200be00f7ff37006150e10079
:10113000fcff3a00c9ff37006022b8000602200019
:101140000000d0008180d2000482d2008582d200cb
:101150000000a0000202520083825a000300310006
:101160000202420083824a000000a1000603e90057
:10117000f3ff3a0000000600881f7800030478009f
:101180000300e00007003d0060001000e080180050
:1011900060011900e081190002003b0001f02d0000
:1011a000030037000400070008f0a70001f0a000ca
:1011b0004f04780000000600889fbe008a9fbe0092
:1011c0000082700004027100048271002600320067
:1011d0000004be000200be006011b8006b092000d0
:1011e000950220000182cf000a0039000541b100bc
:1011f0000082cf00070039000541b1000982cf000d
:10120000040039000541b1000882cf000100390017
:101210000541b10005425200120032000a003b00b5
:1012200082817100610164008100d1000080d300df
:101230008984d3000884d3008b05e8000442e800c9
:10124000f7ff3a00070037000804440089844c0087
:1012500000004800818048008b05e9000442e90055
:10126000f9ff3a002dff07004f05be004f04be00f6
:041270000000060074
:020000040000fa
:10127400800000006e0000005d0000004c000000d3
:101284003d0000002e0000002200000017000000b6
:101294000e00000007000000030000000100000031
:1012a40002000000050000000a0000001200000017
:1012b4001c0000002800000035000000440000006d
:1012c400550000006600000077000000890000005f
:1012d4009a000000ab000000bc000000cb0000003e
:1012e400d8000000e4000000ee000000f60000005a
:1012f400fb000000fe000000ff000000fd000000f5
:10130400f9000000f2000000e9000000de00000027
:10131400d2000000c3000000b4000000a3000000dd
:1013240092000000800000006e0000005d000000dc
:101334004c0000003d0000002e00000022000000d0
:10134400170000000e00000007000000030000006a
:101354000100000002000000050000000a00000077
:10136400120000001c0000002800000035000000ee
:1013740044000000550000006600000077000000f3
:10138400890000009a000000ab000000bc000000cf
:10139400cb000000d8000000e4000000ee000000d4
:1013a400f6000000fb000000fe000000ff0000004b
:1013b400fd000000f9000000f2000000e900000058
:1013c400de000000d2000000c3000000b4000000f2
:1013d400a300000092000000800000006e000000e6
:1013e4005d0000004c0000003d0000002e000000e5
:1013f40022000000170000000e000000070000009b
:1014040003000000010000000200000005000000cd
:101414000a000000120000001c0000002800000068
:101424003500000044000000550000006600000084
:1014340077000000890000009a000000ab00000063
:10144400bc000000cb000000d8000000e400000055
:10145400ee000000f6000000fb000000fe000000ab
:10146400ff000000fd000000f9000000f200000091
:10147400e9000000de000000d2000000c30000000c
:10148400b4000000a30000009200000080000000ef
:101494006e0000005d0000004c0000003d000000f4
:1014a4002e00000022000000170000000e000000c3
:1014b400070000000300000001000000020000001b
:1014c400050000000a000000120000001c000000db
:1014d4002800000035000000440000005500000012
:1014e4006600000077000000890000009a000000f8
:1014f400ab000000bc000000cb000000d8000000de
:10150400e4000000ee000000f6000000fb00000014
:10151400fe000000ff000000fd000000f9000000d4
:10152400f2000000e9000000de000000d20000002c
:10153400c3000000b4000000a300000092000000fb
:10154400800000006e0000005d0000004c00000000
:101554003d0000002e0000002200000017000000e3
:101564000e0000000700000003000000010000005e
:1015740002000000050000000a0000001200000044
:101584001c0000002800000035000000440000009a
:10159400550000006600000077000000890000008c
:1015a4009a000000ab000000bc000000cb0000006b
:1015b400d8000000e4000000ee000000f600000087
:1015c400fb000000fe000000ff000000fd00000022
:1015d400f9000000f2000000e9000000de00000055
:1015e400d2000000c3000000b4000000a30000000b
:1015f40092000000800000006e0000005d0000000a
:101604004c0000003d0000002e00000022000000fd
:10161400170000000e000000070000000300000097
:101624000100000002000000050000000a000000a4
:10163400120000001c00000028000000350000001b
:101644004400000055000000660000007700000020
:10165400890000009a000000ab000000bc000000fc
:10166400cb000000d8000000e4000000ee00000001
:10167400f6000000fb000000fe000000ff00000078
:10168400fd000000f9000000f2000000e900000085
:10169400de000000d2000000c3000000b40000001f
:1016a400a300000092000000800000006e00000013
:1016b4005d0000004c0000003d0000002e00000012
:1016c40022000000170000000e00000007000000c8
:1016d40003000000010000000200000005000000fb
:1016e4000a000000120000001c0000002800000096
:1016f40035000000440000005500000066000000b2
:1017040077000000890000009a000000ab00000090
:10171400bc000000cb000000d8000000e400000082
:10172400ee000000f6000000fb000000fe000000d8
:10173400ff000000fd000000f9000000f2000000be
:10174400e9000000de000000d2000000c300000039
:10175400b4000000a300000092000000800000001c
:101764006e0000005d0000004c0000003d00000021
:101774002e00000022000000170000000e000000f0
:101784000700000003000000010000000200000048
:10179400050000000a000000120000001c00000008
:1017a400280000003500000044000000550000003f
:1017b4006600000077000000890000009a00000025
:1017c400ab000000bc000000cb000000d80000000b
:1017d400e4000000ee000000f6000000fb00000042
:1017e400fe000000ff000000fd000000f900000002
:1017f400f2000000e9000000de000000d20000005a
:10180400c3000000b4000000a30000009200000028
:10181400800000006e0000005d0000004c0000002d
:101824003d0000002e000000220000001700000010
:101834000e0000000700000003000000010000008b
:1018440002000000050000000a0000001200000071
:101854001c000000280000003500000044000000c7
:1018640055000000660000007700000089000000b9
:101874009a000000ab000000bc000000cb00000098
:10188400d8000000e4000000ee000000f6000000b4
:10189400fb000000fe000000ff000000fd0000004f
:1018a400f9000000f2000000e9000000de00000082
:1018b400d2000000c3000000b4000000a300000038
:1018c40092000000800000006e0000005d00000037
:1018d4004c0000003d0000002e000000220000002b
:1018e400170000000e0000000700000003000000c5
:1018f4000100000002000000050000000a000000d2
:10190400120000001c000000280000003500000048
:10191400440000005500000066000000770000004d
:10192400890000009a000000ab000000bc00000029
:10193400cb000000d8000000e4000000ee0000002e
:10194400f6000000fb000000fe000000ff000000a5
:10195400fd000000f9000000f2000000e9000000b2
:10196400de000000d2000000c3000000b40000004c
:10197400a300000092000000800000006e00000040
:101984005d0000004c0000003d0000002e0000003f
:1019940022000000170000000e00000007000000f5
:1019a4000300000001000000020000000500000028
:1019b4000a000000120000001c00000028000000c3
:1019c40035000000440000005500000066000000df
:1019d40077000000890000009a000000ab000000be
:1019e400bc000000cb000000d8000000e4000000b0
:1019f400ee000000f6000000fb000000fe00000006
:101a0400ff000000fd000000f9000000f2000000eb
:101a1400e9000000de000000d2000000c300000066
:101a2400b4000000a3000000920000008000000049
:101a34006e0000005d0000004c0000003d0000004e
:101a44002e00000022000000170000000e0000001d
:101a54000700000003000000010000000200000075
:101a6400050000000a000000120000001c00000035
:101a7400280000003500000044000000550000006c
:101a84006600000077000000890000009a00000052
:101a9400ab000000bc000000cb000000d800000038
:101aa400e4000000ee000000f6000000fb0000006f
:101ab400fe000000ff000000fd000000f90000002f
:101ac400f2000000e9000000de000000d200000087
:101ad400c3000000b4000000a30000009200000056
:101ae400800000006e0000005d0000004c0000005b
:101af4003d0000002e00000022000000170000003e
:101b04000e000000070000000300000001000000b8
:101b140002000000050000000a000000120000009e
:101b24001c000000280000003500000044000000f4
:101b340055000000660000007700000089000000e6
:101b44009a000000ab000000bc000000cb000000c5
:101b5400d8000000e4000000ee000000f6000000e1
:101b6400fb000000fe000000ff000000fd0000007c
:101b7400f9000000f2000000e9000000de000000af
:101b8400d2000000c3000000b4000000a300000065
:101b940092000000800000006e0000005d00000064
:101ba4004c0000003d0000002e0000002200000058
:101bb400170000000e0000000700000003000000f2
:101bc4000100000002000000050000000a000000ff
:101bd400120000001c000000280000003500000076
:101be400440000005500000066000000770000007b
:101bf400890000009a000000ab000000bc00000057
:101c0400cb000000d8000000e4000000ee0000005b
:101c1400f6000000fb000000fe000000ff000000d2
:101c2400fd000000f9000000f2000000e9000000df
:101c3400de000000d2000000c3000000b400000079
:101c4400a300000092000000800000006e0000006d
:101c54005d0000004c0000003d0000002e0000006c
:101c640022000000170000000e0000000700000022
:101c74000300000001000000020000000500000055
:101c84000a000000120000001c00000028000000f0
:101c9400350000004400000055000000660000000c
:101ca40077000000890000009a000000ab000000eb
:101cb400bc000000cb000000d8000000e4000000dd
:101cc400ee000000f6000000fb000000fe00000033
:101cd400ff000000fd000000f9000000f200000019
:101ce400e9000000de000000d2000000c300000094
:101cf400b4000000a3000000920000008000000077
:101d04006e0000005d0000004c0000003d0000007b
:101d14002e00000022000000170000000e0000004a
:101d240007000000030000000100000002000000a2
:101d3400050000000a000000120000001c00000062
:101d44002800000035000000440000005500000099
:101d54006600000077000000890000009a0000007f
:101d6400ab000000bc000000cb000000d800000065
:101d7400e4000000ee000000f6000000fb0000009c
:101d8400fe000000ff000000fd000000f90000005c
:101d9400f2000000e9000000de000000d2000000b4
:101da400c3000000b4000000a30000009200000083
:101db400800000006e0000005d0000004c00000088
:101dc4003d0000002e00000022000000170000006b
:101dd4000e000000070000000300000001000000e6
:101de40002000000050000000a00000012000000cc
:101df4001c00000028000000350000004400000022
:101e04005500000066000000770000008900000013
:101e14009a000000ab000000bc000000cb000000f2
:101e2400d8000000e4000000ee000000f60000000e
:101e3400fb000000fe000000ff000000fd000000a9
:101e4400f9000000f2000000e9000000de000000dc
:101e5400d2000000c3000000b4000000a300000092
:101e640092000000800000006e0000005d00000091
:101e74004c0000003d0000002e0000002200000085
:101e8400170000000e00000007000000030000001f
:101e94000100000002000000050000000a0000002c
:101ea400120000001c0000002800000035000000a3
:101eb40044000000550000006600000077000000a8
:101ec400890000009a000000ab000000bc00000084
:101ed400cb000000d8000000e4000000ee00000089
:101ee400f6000000fb000000fe000000ff00000000
:101ef400fd000000f9000000f2000000e90000000d
:101f0400de000000d2000000c3000000b4000000a6
:101f1400a300000092000000800000006e0000009a
:101f24005d0000004c0000003d0000002e00000099
:101f340022000000170000000e000000070000004f
:101f44000300000001000000020000000500000082
:101f54000a000000120000001c000000280000001d
:101f64003500000044000000550000006600000039
:101f740077000000890000009a000000ab00000018
:101f8400bc000000cb000000d8000000e40000000a
:101f9400ee000000f6000000fb000000fe00000060
:101fa400ff000000fd000000f9000000f200000046
:101fb400e9000000de000000d2000000c3000000c1
:101fc400b4000000a30000009200000080000000a4
:101fd4006e0000005d0000004c0000003d000000a9
:101fe4002e00000022000000170000000e00000078
:101ff40007000000030000000100000002000000d0
:10200400050000000a000000120000001c0000008f
:1020140028000000350000004400000055000000c6
:102024006600000077000000890000009a000000ac
:10203400ab000000bc000000cb000000d800000092
:10204400e4000000ee000000f6000000fb000000c9
:10205400fe000000ff000000fd000000f900000089
:10206400f2000000e9000000de000000d2000000e1
:10207400c3000000b4000000a300000092000000b0
:10208400800000006e0000005d0000004c000000b5
:102094003d0000002e000000220000001700000098
:1020a4000e00000007000000030000000100000013
:1020b40002000000050000000a00000012000000f9
:1020c4001c0000002800000035000000440000004f
:1020d4005500000066000000770000008900000041
:1020e4009a000000ab000000bc000000cb00000020
:1020f400d8000000e4000000ee000000f60000003c
:10210400fb000000fe000000ff000000fd000000d6
:10211400f9000000f2000000e9000000de00000009
:10212400d2000000c3000000b4000000a3000000bf
:1021340092000000800000006e0000005d000000be
:102144004c0000003d0000002e00000022000000b2
:10215400170000000e00000007000000030000004c
:102164000100000002000000050000000a00000059
:10217400120000001c0000002800000035000000d0
:1021840044000000550000006600000077000000d5
:10219400890000009a000000ab000000bc000000b1
:1021a400cb000000d8000000e4000000ee000000b6
:1021b400f6000000fb000000fe000000ff0000002d
:1021c400fd000000f9000000f2000000e90000003a
:1021d400de000000d2000000c3000000b4000000d4
:1021e400a300000092000000800000006e000000c8
:1021f4005d0000004c0000003d0000002e000000c7
:1022040022000000170000000e000000070000007c
:1022140003000000010000000200000005000000af
:102224000a000000120000001c000000280000004a
:102234003500000044000000550000006600000066
:1022440077000000890000009a000000ab00000045
:10225400bc000000cb000000d8000000e400000037
:10226400ee000000f6000000fb000000fe0000008d
:10227400ff000000fd000000f9000000f200000073
:10228400e9000000de000000d2000000c3000000ee
:10229400b4000000a30000009200000080000000d1
:1022a4006e0000005d0000004c0000003d000000d6
:1022b4002e00000022000000170000000e000000a5
:1022c40007000000030000000100000002000000fd
:1022d400050000000a000000120000001c000000bd
:1022e40028000000350000004400000055000000f4
:1022f4006600000077000000890000009a000000da
:10230400ab000000bc000000cb000000d8000000bf
:10231400e4000000ee000000f6000000fb000000f6
:10232400fe000000ff000000fd000000f9000000b6
:10233400f2000000e9000000de000000d20000000e
:10234400c3000000b4000000a300000092000000dd
:10235400800000006e0000005d0000004c000000e2
:102364003d0000002e0000002200000017000000c5
:102374000e00000007000000030000000100000040
:1023840002000000050000000a0000001200000026
:102394001c0000002800000035000000440000007c
:1023a400550000006600000077000000890000006e
:1023b4009a000000ab000000bc000000cb0000004d
:1023c400d8000000e4000000ee000000f600000069
:1023d400fb000000fe000000ff000000fd00000004
:1023e400f9000000f2000000e9000000de00000037
:1023f400d2000000c3000000b4000000a3000000ed
:1024040092000000800000006e0000005d000000eb
:102414004c0000003d0000002e00000022000000df
:10242400170000000e000000070000000300000079
:102434000100000002000000050000000a00000086
:10244400120000001c0000002800000035000000fd
:102454004400000055000000660000007700000002
:10246400890000009a000000ab000000bc000000de
:10247400cb000000d8000000e4000000ee000000e3
:10248400f6000000fb000000fe000000ff0000005a
:10249400fd000000f9000000f2000000e900000067
:1024a400de000000d2000000c3000000b400000001
:1024b400a300000092000000800000006e000000f5
:1024c4005d0000004c0000003d0000002e000000f4
:1024d40022000000170000000e00000007000000aa
:1024e40003000000010000000200000005000000dd
:1024f4000a000000120000001c0000002800000078
:102504003500000044000000550000006600000093
:1025140077000000890000009a000000ab00000072
:10252400bc000000cb000000d8000000e400000064
:10253400ee000000f6000000fb000000fe000000ba
:10254400ff000000fd000000f9000000f2000000a0
:10255400e9000000de000000d2000000c30000001b
:10256400b4000000a30000009200000080000000fe
:102574006e0000005d0000004c0000003d00000003
:102584002e00000022000000170000000e000000d2
:10259400070000000300000001000000020000002a
:1025a400050000000a000000120000001c000000ea
:1025b4002800000035000000440000005500000021
:1025c4006600000077000000890000009a00000007
:1025d400ab000000bc000000cb000000d8000000ed
:1025e400e4000000ee000000f6000000fb00000024
:1025f400fe000000ff000000fd000000f9000000e4
:10260400f2000000e9000000de000000d20000003b
:10261400c3000000b4000000a3000000920000000a
:10262400800000006e0000005d0000004c0000000f
:102634003d0000002e0000002200000017000000f2
:102644000e0000000700000003000000010000006d
:1026540002000000050000000a0000001200000053
:102664001c000000280000003500000044000000a9
:10267400550000006600000077000000890000009b
:102684009a000000ab000000bc000000cb0000007a
:10269400d8000000e4000000ee000000f600000096
:1026a400fb000000fe000000ff000000fd00000031
:1026b400f9000000f2000000e9000000de00000064
:1026c400d2000000c3000000b4000000a30000001a
:1026d40092000000800000006e0000005d00000019
:1026e4004c0000003d0000002e000000220000000d
:1026f400170000000e0000000700000003000000a7
:102704000100000002000000050000000a000000b3
:10271400120000001c00000028000000350000002a
:10272400440000005500000066000000770000002f
:10273400890000009a000000ab000000bc0000000b
:10274400cb000000d8000000e4000000ee00000010
:10275400f6000000fb000000fe000000ff00000087
:10276400fd000000f9000000f2000000e900000094
:10277400de000000d2000000c3000000b40000002e
:10278400a300000092000000800000006e00000022
:102794005d0000004c0000003d0000002e00000021
:1027a40022000000170000000e00000007000000d7
:1027b400030000000100000002000000050000000a
:1027c4000a000000120000001c00000028000000a5
:1027d40035000000440000005500000066000000c1
:1027e40077000000890000009a000000ab000000a0
:1027f400bc000000cb000000d8000000e400000092
:10280400ee000000f6000000fb000000fe000000e7
:10281400ff000000fd000000f9000000f2000000cd
:10282400e9000000de000000d2000000c300000048
:10283400b4000000a300000092000000800000002b
:102844006e0000005d0000004c0000003d00000030
:102854002e00000022000000170000000e000000ff
:102864000700000003000000010000000200000057
:10287400050000000a000000120000001c00000017
:10288400280000003500000044000000550000004e
:102894006600000077000000890000009a00000034
:1028a400ab000000bc000000cb000000d80000001a
:1028b400e4000000ee000000f6000000fb00000051
:1028c400fe000000ff000000fd000000f900000011
:1028d400f2000000e9000000de000000d200000069
:1028e400c3000000b4000000a30000009200000038
:1028f400800000006e0000005d0000004c0000003d
:102904003d0000002e00000022000000170000001f
:102914000e0000000700000003000000010000009a
:1029240002000000050000000a0000001200000080
:102934001c000000280000003500000044000000d6
:1029440055000000660000007700000089000000c8
:102954009a000000ab000000bc000000cb000000a7
:10296400d8000000e4000000ee000000f6000000c3
:10297400fb000000fe000000ff000000fd0000005e
:10298400f9000000f2000000e9000000de00000091
:10299400d2000000c3000000b4000000a300000047
:1029a40092000000800000006e0000005d00000046
:1029b4004c0000003d0000002e000000220000003a
:1029c400170000000e0000000700000003000000d4
:1029d4000100000002000000050000000a000000e1
:1029e400120000001c000000280000003500000058
:1029f400440000005500000066000000770000005d
:102a0400890000009a000000ab000000bc00000038
:102a1400cb000000d8000000e4000000ee0000003d
:102a2400f6000000fb000000fe000000ff000000b4
:102a3400fd000000f9000000f2000000e9000000c1
:102a4400de000000d2000000c3000000b40000005b
:102a5400a300000092000000800000006e0000004f
:102a64005d0000004c0000003d0000002e0000004e
:102a740022000000170000000e0000000700000004
:102a84000300000001000000020000000500000037
:102a94000a000000120000001c00000028000000d2
:102aa40035000000440000005500000066000000ee
:102ab40077000000890000009a000000ab000000cd
:102ac400bc000000cb000000d8000000e4000000bf
:102ad400ee000000f6000000fb000000fe00000015
:102ae400ff000000fd000000f9000000f2000000fb
:102af400e9000000de000000d2000000c300000076
:102b0400b4000000a3000000920000008000000058
:102b14006e0000005d0000004c0000003d0000005d
:102b24002e00000022000000170000000e0000002c
:102b34000700000003000000010000000200000084
:102b4400050000000a000000120000001c00000044
:102b5400280000003500000044000000550000007b
:102b64006600000077000000890000009a00000061
:102b7400ab000000bc000000cb000000d800000047
:102b8400e4000000ee000000f6000000fb0000007e
:102b9400fe000000ff000000fd000000f90000003e
:102ba400f2000000e9000000de000000d200000096
:102bb400c3000000b4000000a30000009200000065
:102bc400800000006e0000005d0000004c0000006a
:102bd4003d0000002e00000022000000170000004d
:102be4000e000000070000000300000001000000c8
:102bf40002000000050000000a00000012000000ae
:102c04001c00000028000000350000004400000003
:102c140055000000660000007700000089000000f5
:102c24009a000000ab000000bc000000cb000000d4
:102c3400d8000000e4000000ee000000f6000000f0
:102c4400fb000000fe000000ff000000fd0000008b
:102c5400f9000000f2000000e9000000de000000be
:102c6400d2000000c3000000b4000000a300000074
:102c740092000000800000006e0000005d00000073
:102c84004c0000003d0000002e0000002200000067
:102c9400170000000e000000070000000300000001
:102ca4000100000002000000050000000a0000000e
:102cb400120000001c000000280000003500000085
:102cc400440000005500000066000000770000008a
:102cd400890000009a000000ab000000bc00000066
:102ce400cb000000d8000000e4000000ee0000006b
:102cf400f6000000fb000000fe000000ff000000e2
:102d0400fd000000f9000000f2000000e9000000ee
:102d1400de000000d2000000c3000000b400000088
:102d2400a300000092000000800000006e0000007c
:102d34005d0000004c0000003d0000002e0000007b
:102d440022000000170000000e0000000700000031
:102d54000300000001000000020000000500000064
:102d64000a000000120000001c00000028000000ff
:102d7400350000004400000055000000660000001b
:102d840077000000890000009a000000ab000000fa
:102d9400bc000000cb000000d8000000e4000000ec
:102da400ee000000f6000000fb000000fe00000042
:102db400ff000000fd000000f9000000f200000028
:102dc400e9000000de000000d2000000c3000000a3
:102dd400b4000000a3000000920000008000000086
:102de4006e0000005d0000004c0000003d0000008b
:102df4002e00000022000000170000000e0000005a
:102e040007000000030000000100000002000000b1
:102e1400050000000a000000120000001c00000071
:102e240028000000350000004400000055000000a8
:102e34006600000077000000890000009a0000008e
:102e4400ab000000bc000000cb000000d800000074
:102e5400e4000000ee000000f6000000fb000000ab
:102e6400fe000000ff000000fd000000f90000006b
:102e7400f2000000e9000000de000000d2000000c3
:102e8400c3000000b4000000a30000009200000092
:102e9400800000006e0000005d0000004c00000097
:102ea4003d0000002e00000022000000170000007a
:102eb4000e000000070000000300000001000000f5
:102ec40002000000050000000a00000012000000db
:102ed4001c00000028000000350000004400000031
:102ee4005500000066000000770000008900000023
:102ef4009a000000ab000000bc000000cb00000002
:102f0400d8000000e4000000ee000000f60000001d
:102f1400fb000000fe000000ff000000fd000000b8
:102f2400f9000000f2000000e9000000de000000eb
:102f3400d2000000c3000000b4000000a3000000a1
:102f440092000000800000006e0000005d000000a0
:102f54004c0000003d0000002e0000002200000094
:102f6400170000000e00000007000000030000002e
:102f74000100000002000000050000000a0000003b
:102f8400120000001c0000002800000035000000b2
:102f940044000000550000006600000077000000b7
:102fa400890000009a000000ab000000bc00000093
:102fb400cb000000d8000000e4000000ee00000098
:102fc400f6000000fb000000fe000000ff0000000f
:102fd400fd000000f9000000f2000000e90000001c
:102fe400de000000d2000000c3000000b4000000b6
:102ff400a300000092000000800000006e000000aa
:103004005d0000004c0000003d0000002e000000a8
:1030140022000000170000000e000000070000005e
:103024000300000001000000020000000500000091
:103034000a000000120000001c000000280000002c
:103044003500000044000000550000006600000048
:1030540077000000890000009a000000ab00000027
:10306400bc000000cb000000d8000000e400000019
:10307400ee000000f6000000fb000000fe0000006f
:10308400ff000000fd000000f9000000f200000055
:10309400e9000000de000000d2000000c3000000d0
:1030a400b4000000a30000009200000080000000b3
:1030b4006e0000005d0000004c0000003d000000b8
:1030c4002e00000022000000170000000e00000087
:1030d40007000000030000000100000002000000df
:1030e400050000000a000000120000001c0000009f
:1030f40028000000350000004400000055000000d6
:103104006600000077000000890000009a000000bb
:10311400ab000000bc000000cb000000d8000000a1
:10312400e4000000ee000000f6000000fb000000d8
:10313400fe000000ff000000fd000000f900000098
:10314400f2000000e9000000de000000d2000000f0
:10315400c3000000b4000000a300000092000000bf
:10316400800000006e0000005d0000004c000000c4
:103174003d0000002e0000002200000017000000a7
:103184000e00000007000000030000000100000022
:1031940002000000050000000a0000001200000008
:1031a4001c0000002800000035000000440000005e
:1031b4005500000066000000770000008900000050
:1031c4009a000000ab000000bc000000cb0000002f
:1031d400d8000000e4000000ee000000f60000004b
:1031e400fb000000fe000000ff000000fd000000e6
:1031f400f9000000f2000000e9000000de00000019
:10320400d2000000c3000000b4000000a3000000ce
:1032140092000000800000006e0000005d000000cd
:103224004c0000003d0000002e00000022000000c1
:10323400170000000e00000007000000030000005b
:103244000100000002000000050000000a00000068
:10325400120000001c0000002800000035000000df
:1032640044000000550000006600000077000000e4
:10327400890000009a000000ab000000bc000000c0
:10328400cb000000d8000000e4000000ee000000c5
:10329400f6000000fb000000fe000000ff0000003c
:1032a400fd000000f9000000f2000000e900000049
:1032b400de000000d2000000c3000000b4000000e3
:1032c400a300000092000000800000006e000000d7
:1032d4005d0000004c0000003d0000002e000000d6
:1032e40022000000170000000e000000070000008c
:1032f40003000000010000000200000005000000bf
:103304000a000000120000001c0000002800000059
:103314003500000044000000550000006600000075
:1033240077000000890000009a000000ab00000054
:10333400bc000000cb000000d8000000e400000046
:10334400ee000000f6000000fb000000fe0000009c
:10335400ff000000fd000000f9000000f200000082
:10336400e9000000de000000d2000000c3000000fd
:10337400b4000000a30000009200000080000000e0
:103384006e0000005d0000004c0000003d000000e5
:103394002e00000022000000170000000e000000b4
:1033a400070000000300000001000000020000000c
:1033b400050000000a000000120000001c000000cc
:1033c4002800000035000000440000005500000003
:1033d4006600000077000000890000009a000000e9
:1033e400ab000000bc000000cb000000d8000000cf
:1033f400e4000000ee000000f6000000fb00000006
:10340400fe000000ff000000fd000000f9000000c5
:10341400f2000000e9000000de000000d20000001d
:10342400c3000000b4000000a300000092000000ec
:10343400800000006e0000005d0000004c000000f1
:103444003d0000002e0000002200000017000000d4
:103454000e0000000700000003000000010000004f
:1034640002000000050000000a0000001200000035
:103474001c0000002800000035000000440000008b
:10348400550000006600000077000000890000007d
:103494009a000000ab000000bc000000cb0000005c
:1034a400d8000000e4000000ee000000f600000078
:1034b400fb000000fe000000ff000000fd00000013
:1034c400f9000000f2000000e9000000de00000046
:1034d400d2000000c3000000b4000000a3000000fc
:1034e40092000000800000006e0000005d000000fb
:1034f4004c0000003d0000002e00000022000000ef
:10350400170000000e000000070000000300000088
:103514000100000002000000050000000a00000095
:10352400120000001c00000028000000350000000c
:103534004400000055000000660000007700000011
:10354400890000009a000000ab000000bc000000ed
:10355400cb000000d8000000e4000000ee000000f2
:10356400f6000000fb000000fe000000ff00000069
:10357400fd000000f9000000f2000000e900000076
:10358400de000000d2000000c3000000b400000010
:10359400a300000092000000800000006e00000004
:1035a4005d0000004c0000003d0000002e00000003
:1035b40022000000170000000e00000007000000b9
:1035c40003000000010000000200000005000000ec
:1035d4000a000000120000001c0000002800000087
:1035e40035000000440000005500000066000000a3
:1035f40077000000890000009a000000ab00000082
:10360400bc000000cb000000d8000000e400000073
:10361400ee000000f6000000fb000000fe000000c9
:10362400ff000000fd000000f9000000f2000000af
:10363400e9000000de000000d2000000c30000002a
:10364400b4000000a300000092000000800000000d
:103654006e0000005d0000004c0000003d00000012
:103664002e00000022000000170000000e000000e1
:103674000700000003000000010000000200000039
:10368400050000000a000000120000001c000000f9
:103694002800000035000000440000005500000030
:1036a4006600000077000000890000009a00000016
:1036b400ab000000bc000000cb000000d8000000fc
:1036c400e4000000ee000000f6000000fb00000033
:1036d400fe000000ff000000fd000000f9000000f3
:1036e400f2000000e9000000de000000d20000004b
:1036f400c3000000b4000000a3000000920000001a
:10370400800000006e0000005d0000004c0000001e
:103714003d0000002e000000220000001700000001
:103724000e0000000700000003000000010000007c
:1037340002000000050000000a0000001200000062
:103744001c000000280000003500000044000000b8
:1037540055000000660000007700000089000000aa
:103764009a000000ab000000bc000000cb00000089
:10377400d8000000e4000000ee000000f6000000a5
:10378400fb000000fe000000ff000000fd00000040
:10379400f9000000f2000000e9000000de00000073
:1037a400d2000000c3000000b4000000a300000029
:1037b40092000000800000006e0000005d00000028
:1037c4004c0000003d0000002e000000220000001c
:1037d400170000000e0000000700000003000000b6
:1037e4000100000002000000050000000a000000c3
:1037f400120000001c00000028000000350000003a
:10380400440000005500000066000000770000003e
:10381400890000009a000000ab000000bc0000001a
:10382400cb000000d8000000e4000000ee0000001f
:10383400f6000000fb000000fe000000ff00000096
:10384400fd000000f9000000f2000000e9000000a3
:10385400de000000d2000000c3000000b40000003d
:10386400a300000092000000800000006e00000031
:103874005d0000004c0000003d0000002e00000030
:1038840022000000170000000e00000007000000e6
:103894000300000001000000020000000500000019
:1038a4000a000000120000001c00000028000000b4
:1038b40035000000440000005500000066000000d0
:1038c40077000000890000009a000000ab000000af
:1038d400bc000000cb000000d8000000e4000000a1
:1038e400ee000000f6000000fb000000fe000000f7
:1038f400ff000000fd000000f9000000f2000000dd
:10390400e9000000de000000d2000000c300000057
:10391400b4000000a300000092000000800000003a
:103924006e0000005d0000004c0000003d0000003f
:103934002e00000022000000170000000e0000000e
:103944000700000003000000010000000200000066
:10395400050000000a000000120000001c00000026
:10396400280000003500000044000000550000005d
:103974006600000077000000890000009a00000043
:10398400ab000000bc000000cb000000d800000029
:10399400e4000000ee000000f6000000fb00000060
:1039a400fe000000ff000000fd000000f900000020
:1039b400f2000000e9000000de000000d200000078
:1039c400c3000000b4000000a30000009200000047
:1039d400800000006e0000005d0000004c0000004c
:1039e4003d0000002e00000022000000170000002f
:1039f4000e000000070000000300000001000000aa
:103a040002000000050000000a000000120000008f
:103a14001c000000280000003500000044000000e5
:103a240055000000660000007700000089000000d7
:103a34009a000000ab000000bc000000cb000000b6
:103a4400d8000000e4000000ee000000f6000000d2
:103a5400fb000000fe000000ff000000fd0000006d
:103a6400f9000000f2000000e9000000de000000a0
:103a7400d2000000c3000000b4000000a300000056
:103a84009200000076000000700000006900000051
:103a9400620000005b000000540000004d000000c4
:103aa40047000000410000003b0000003600000019
:103ab400320000002e0000002c000000290000004d
:103ac4002700000027000000260000002700000057
:103ad400280000002a0000002c0000002e00000036
:103ae4003100000034000000380000003b000000fa
:103af4003f00000043000000470000004a000000af
:103b04004f00000052000000560000005900000061
:103b14005c0000005f000000620000006400000020
:103b240066000000690000006a0000006b000000ed
:103b34006d0000006e0000006f00000070000000c7
:103b440071000000720000007200000072000000aa
:103b54007300000073000000740000007400000093
:103b6400740000007400000075000000750000007f
:103b7400750000007600000076000000760000006a
:103b84007600000077000000770000007700000056
:103b94007700000077000000770000007700000045
:103ba4007700000078000000780000007900000031
:103bb400790000007a0000007b0000007c00000017
:103bc4007e0000007f0000008000000082000000f2
:103bd40085000000870000008a0000008e000000bd
:103be4009000000094000000980000009c00000079
:103bf400a0000000a4000000a8000000ad00000028
:103c0400b1000000b6000000ba000000be000000d1
:103c1400c2000000c6000000c9000000cc00000083
:103c2400cf000000d1000000d3000000d400000049
:103c3400d6000000d6000000d6000000d600000028
:103c4400d4000000d3000000d2000000cf00000028
:103c5400cd000000ca000000c7000000c40000003e
:103c6400c0000000bc000000b8000000b400000068
:103c7400b0000000ac000000a8000000a400000098
:103c8400a00000009c0000009700000094000000c9
:103c9400900000008c0000008800000084000000f8
:020000040000fa
:103ca400000800001a0000000200000000000000ec
:103cb4000000000000000000000000000000000000
:103cc40000000000000000000000000000000000f0
:103cd4001a080000140000000000000000000000aa
:020000040000fa
:0200000401f009
:04000000f3bf00004a
:020000040000fa
:0200000401f009
:04000400ff7f00007a
:020000040000fa
:0200000401f009
:040008006cff000089
:020000040000fa
:0200000401f009
:04001400ffff0000ea
:020000040000fa
:0200000401f009
:04001800ffff0000e6
:00000001FF
