:04000000CDEF04F04C
:08000800046ED8CF05F0E0CF33
:1000100006F00001E9CF0CF0EACF07F0E1CF08F0DD
:10002000E2CF09F0D9CF0AF0DACF0BF0F3CF12F01C
:10003000F4CF13F0FACF14F0F5CF15F0F6CF16F099
:10004000F7CF17F000C00EF001C00FF002C010F0A3
:1000500003C011F0F2AA30EF00F0F2B49FEF00F00D
:100060009DA036EF00F09EB0F8EF00F09DA23CEFAF
:1000700000F09EB215EF01F09DAC42EF00F09EBC87
:1000800023EF01F00EC000F00FC001F010C002F02D
:1000900011C003F00CC0E9FF07C0EAFF078E08C0DB
:1000A000E1FF09C0E2FF0AC0D9FF0BC0DAFF12C0AE
:1000B000F3FF13C0F4FF14C0FAFF15C0F5FF16C01C
:1000C000F6FF17C0F7FF045006C0E0FF05C0D8FFD9
:1000D0001000F76AE20FF66E000EF7220900F550E5
:1000E0001200804C2207021235669ACBEEFEF9DE32
:1000F000B400F76A020FF66E010EF7220900F55000
:100100001200807465533E29160801030D1D30430B
:1001100054626C7377797A7B7B7C7C7C7D7D7E7F7F
:10012000808081828283838484848586898D949E65
:10013000ACBED1E4F3FCFEF6E7D4BEAA988A3850F0
:100140003A5C2AE303E13950375C26E236500E0868
:100150001EE3036A3650BDDF006E00305E6E5E3215
:100160003F0E5E165EC08AFF036A3650B2DF006E35
:10017000003A00360036C00E0016005004E18350ED
:1001800002E1000E01D0010E8C6E362A04D0366AD0
:10019000372AD8B4382A25D03B503B081FE3036ADE
:1001A0003B50A7DF006E00305E6E5E323F0E5E1683
:1001B0005EC08AFF036A3B509CDF006E003A003647
:1001C0000036C00E0016005004E1835002E1000E1C
:1001D00001D0010E8C6E020E3B2603D03B6A386ABA
:1001E000376A35C0D7FF34C0D6FFF29442EF00F033
:1001F0008B703D503F5C06E303E13C503E5C02E304
:100200008B8401D08B943C2AD8B43D2A41503D5C6C
:1002100006E303E140503C5C02E33D6A3C6ACF6880
:10022000B40ECE6E9E9042EF00F04250640802E39E
:100230008B8201D08B92422A4250C708D8A0426AD2
:100240009E9242EF00F0C2B2FED7C3501926C450AE
:100250001A22000E1B221C221D2AD8B41E2A1E5050
:100260000F0832E2D8901F34036A200FE96E000EA7
:100270000320EA6E1C30026E1B30016E1A30006ED5
:1002800002320132003202320132003202320132D5
:1002900000320F0E021601C0ECFFED5200C0EFFF5E
:1002A0001C6A1B6A1A6A196A1E6A1D6A1F2A1F5075
:1002B0000208D8B41F6A1F34006E0036FC0E001608
:1002C000C250C30B0010C26EC2829E9C42EF00F06F
:1002D000496E6963696F2054657369733A204D6193
:1002E00072636F20436861626C612C204A6F736592
:1002F000204D6F72613B0D0A0000414443300D0AEE
:100300002076616C3A254C7520766F6C3A25662014
:10031000313A25660D0A0000414443310D0A20762A
:10032000616C3A254C7520766F6C3A256620323A1E
:1003300025660D0A0000667265632025354C752020
:100340000D0A0000776964742025354C75200D0A6C
:1003500000000900F5520DE0F6CF44F0F7CF45F06C
:10036000F5509EA8FED7AD6E44C0F6FF45C0F7FF1E
:10037000F0D74AEF05F044504602F3CF01F0F4CF36
:1003800000F04702F350002645504602F35000208B
:10039000026E12008E0E006E45C001F044C002F0E5
:1003A000036A015209E102C001F0026A080E005E10
:1003B000015202E1006A08D0D89001BE04D0023692
:1003C00001360006F9D7019E12004850D8B4A5D0D6
:1003D000546E4C50D8B4A1D0545E05E37F0E542621
:1003E000D8B09BD006D0810E545ED8A096D0D8B499
:1003F00094D054C000F0016A026A036A536A49C08B
:1004000052F0528E4AC051F04BC050F0190E546E4B
:100410004F50505E0DE2010E515E0AE2525E08E25C
:10042000535E06E2532A522A512A4F50502628D0B2
:100430004E50515E12E2010E525E0FE2535E0DE22B
:10044000532A522A4E5051264F50502619E3512A12
:1004500017E1522A15E1532A13D04D508009525EFC
:100460000EE2010E535E0BE2532A4D5080095226D4
:100470004E505126E9E3522AE7E1532AE5D703809B
:10048000542E01D00BD0D8905036513652365336B8
:10049000D8900336023601365536BAD755A006D065
:1004A000D890013202320332553202D0000635E0D4
:1004B00055BE1ED0D89050365136523653364F5016
:1004C000505E07E2010E515E04E2525E02E2535EAC
:1004D0001AE34E50515E05E2010E525E02E2535E97
:1004E00012E34D508009525E03E2010E535E0BE3AE
:1004F000032A09E1022A07E1012A05E1002A0DE0A9
:1005000001320232033249C054F04D50541A54AEF5
:1005100002D0018E06D0019E04D0006A016A026AF0
:10052000036A1200D8B203D0EA6A590EE96E006A73
:10053000016A026A036A596A5A6A5B6A5C6A5850BD
:100540005710561055102CE0200E5D6ED890513685
:1005500052365336543659365A365B365C36585016
:100560005C5C08E157505B5C05E156505A5C02E167
:100570005550595C0FE35550595E5650D8A0563C23
:100580005A5E5750D8A0573C5B5E5850D8A0583C94
:100590005C5ED88000360136023603365D2ED6D733
:1005A00059C0EFFF5AC0ECFF5BC0ECFF5CC0ECFF32
:1005B0001200B60E006E036A026A016A46504710C6
:1005C0004810491002E1006A0DD0D89001BE09D050
:1005D0004636473648364936033602360136002E4F
:1005E000F4D7019EE3EF05F08E0E006E4650005EDC
:1005F00047C002F048C001F0028E005209E0D890D6
:10060000025202E1015204E002320132002EF7D719
:1006100047AE05D0011E021E012AD8B4022AECEF13
:1006200005F00900F6CF45F0F7CF46F0F5509EA84B
:10063000FED7AD6E45C0F6FF46C0F7FF442EF1D79A
:100640001200EACF4CF0E9CF4BF04538F009476E85
:100650004726E20F486E320F4A6E45500F0B482670
:1006600048264A26E90F496E4926492644380F0B89
:1006700049264A2649364A364A1E4A3644500F0B06
:100680004A264736070E466E0A0E49064A26FDE3FD
:1006900048064926FDE347064826FDE34606472669
:1006A000FDE3EA6A460EE96E070E4B144B9CE92601
:1006B0004A0EE95CD8B44B8CEF50006E08E14BBC9D
:1006C00006D04BB80CD04BB602D0200E03D04B86D0
:1006D0004B98300E002600509EA8FED7AD6EEE500F
:1006E0004BACE6D712005150D8B471D0006E5550C3
:1006F000D8B46DD0002604E3810E002668E204D051
:100700007F0E005E64E363E052C059F05650591A00
:10071000528E568E54505802F4CF5BF0535057020D
:10072000F4CF03F0F3CF5AF05802F3505B26F450A5
:100730005A22000E032254505702F3505B26F45005
:100740005A22000E026A0322022252505802F3502B
:100750005A26F4500322000E022252505702F35040
:100760000326F4500222000E016A01225450560260
:10077000F3505A26F4500322000E02220122535055
:100780005602F3500326F4500222000E012252506A
:100790005602F3500226F4500122002A01BE05D071
:1007A0005A360336023601360006000E5AAE0AD01B
:1007B000032A02220122015005E1025003E1035005
:1007C00001E1002A59BE018E59AE019E04D0006A93
:1007D000016A026A036A21EF04F05150B608516EB3
:1007E000036A52C055F0528ED8905232533254326E
:1007F0000332023201320032512EF6D755AE0BD001
:10080000001E011E021E031E002AD8B4012AD8B4FD
:10081000022AD8B4032A34EF04F0E950496E485054
:100820004B6E19E047C054F046C053F045C052F03B
:1008300044C051F0586A576A200E566E820E556EAB
:1008400052D703C047F002C046F001C045F000C0D7
:1008500044F04B2EE7D747C054F046C053F045C094
:1008600052F044C051F0B9D703C047F002C046F07F
:1008700001C045F000C044F047AE0DD04906498A9A
:10088000441E451E461E471E442AD8B4452AD8B4E5
:10089000462AD8B4472A3B0E506E9A0E4F6ECA0EA7
:1008A0004E6E4D6A0A0E4B6E4850D8B4492AD88213
:1008B000EA6A440EE96E47C054F046C053F045C0A2
:1008C00052F044C051F050C058F04FC057F04EC0E5
:1008D00056F04DC055F026DE015000520FE1482879
:1008E0004B5C0CE049500CE00F0B4B5C01E03BE231
:1008F00049BE39D049BC04D0200E30D0200E491654
:1009000049AA0DD0499A4850D8A449060050496ECA
:100910002D0E9EA8FED7AD6E4950006E496A485014
:100920004B5C0BE10050496E2E0E9EA8FED7AD6EBB
:100930004950006E200E4916000E300E49AA0ED006
:10094000499A4850D8A449060050496E2D0E9EA8D9
:10095000FED7AD6E4950006E496A300E0026005039
:100960009EA8FED7AD6ED89250C054F04FC053F041
:100970004EC052F04DC051F0586A576A566A0A0E7E
:10098000556ED0DD03C050F002C04FF001C04EF0F4
:1009900000C04DF04B2E8BD71200F86AD09E078E08
:1009A000EA6AE96AB886E10EAF6E040EB06EA60E72
:1009B000AC6E900EAB6E3A6A3A0E396EC150C00BF7
:1009C0000F09C16E070EB46E196A1A6A1B6A1C6A97
:1009D0001D6A1E6A1F6A206A216A226A236A246AC3
:1009E000256A266A276A286A296A2A6A2B6A2C6A73
:1009F0002D6A2E6A2F6A306A316A326A336A346A23
:100A0000356A366A376A386A3B6A3C6A3D6A3E6ACA
:100A10003F6A406A416A426A436AC150C00B0D098D
:100A2000C16EC050C00B0609C06EC08EC280960E4B
:100A3000C012880ED56EB50ECD6E780E0609CA6E40
:100A4000EA0ECB6EC66A9698070EB46E9250926EFE
:100A5000270E006E002EFED700D0B450A19CB56AC0
:100A6000F18EFF0E926EC00E936E880E946E000E85
:100A7000956EFF0E966E9D8CF28A9D809D829D9A4A
:100A8000F298F096F098C00EF212D00EF66E020EAA
:100A9000F76E5FD41F34006E0036FC0E0016C25095
:100AA000C30B0010C26EC28221C045F020C044F0CA
:100AB000476A050E466E5FDC02C003F001C044F0D9
:100AC00002C045F067DC00C044F001C045F002C040
:100AD00046F003C047F003C04BF002C04AF001C02B
:100AE00049F000C048F04F6A4E6A4D6A890E4C6E5C
:100AF0006CDC03C027F002C026F001C025F000C066
:100B000024F023C045F022C044F0476A050E466E2B
:100B100032DC02C003F001C044F002C045F03ADC10
:100B200000C044F001C045F002C046F003C047F0E9
:100B300003C04BF002C04AF001C049F000C048F0C9
:100B40004F6A4E6A4D6A890E4C6E3FDC03C02BF033
:100B500002C02AF001C029F000C028F021C045F0F1
:100B600020C044F0AA0ED8804454346EFF0E455481
:100B7000356E23C045F022C044F045520CE144508C
:100B8000010809E34E0E416E200E406E270E3F6EA7
:100B9000100E3E6E2AD0D892546A010E536EB10EDA
:100BA000526E980E516E586A576A45C056F044C04E
:100BB00055F0B8DC03C049F002C048F001C047F06E
:100BC00000C046F0F6D403C049F002C048F001C0AE
:100BD00047F000C046F008D502C041F001C040F027
:100BE000D89041303F6E40303E6E9EAACDD09EAA36
:100BF000FED7AECF43F04350310844E1FA0EF66E13
:100C0000020EF76E0B0E446E0CDD100EE96E21C065
:100C100045F020C044F015DD080EF66E030EF76EA9
:100C2000050E446EFEDC890EE96E27C047F026C033
:100C300046F025C045F024C044F0020E486EEDDDBC
:100C4000200E9EA8FED7AD6E310E9EA8FED7AD6ECB
:100C50003A0E9EA8FED7AD6E890EE96E2FC047F002
:100C60002EC046F02DC045F02CC044F0020E486E58
:100C7000D4DD0D0E9EA8FED7AD6E0A0E9EA8FED73F
:100C8000AD6E82D04350320844E1180EF66E030E6A
:100C9000F76E0B0E446EC5DC100EE96E23C045F0F6
:100CA00022C044F0CEDC260EF66E030EF76E050E63
:100CB000446EB7DC890EE96E2BC047F02AC046F0BF
:100CC00029C045F028C044F0020E486EA6DD200E73
:100CD0009EA8FED7AD6E320E9EA8FED7AD6E3A0E20
:100CE0009EA8FED7AD6E890EE96E33C047F032C0C4
:100CF00046F031C045F030C044F0020E486E8DDD44
:100D00000D0E9EA8FED7AD6E0A0E9EA8FED7AD6E44
:100D10003BD0435066081BE1360EF66E030EF76EAD
:100D2000050E446E7EDC000EE96E41C045F040C009
:100D300044F087DC200E9EA8FED7AD6E0D0E9EA857
:100D4000FED7AD6E0A0E9EA8FED7AD6E1DD04350E5
:100D500076081AE1440EF66E030EF76E050E446E29
:100D600060DC000EE96E3FC045F03EC044F069DC37
:100D7000200E9EA8FED7AD6E0D0E9EA8FED7AD6EBE
:0C0D80000A0E9EA8FED7AD6E8FD60300B1
:020000040030CA
:0E00000024CE1E1E0085A1000FC00FE00F4091
:00000001FF
;PIC18F4550
;CRC=7D5D  CREATED="07-Oct-12 21:43"
